:100000006F00F03100000000360100003E010000EA
:1000100000000000000000000000000000000000E0
:1000200000000000000000000000000000000000D0
:100030001C0B0000000000001C0B00000000000072
:100040001C0B00001C0B00001C0B00001C0B000014
:10005000E40200001C0B00001C0B00001C0B000045
:100060001C0B00001C0B00001C0B00001C0B0000F4
:100070001C0B00001C0B00001C0B00001C0B0000E4
:100080001C0B00001C0B00001C0B00001C0B0000D4
:100090001C0B00001C0B00001C0B000000000000EB
:1000A0002A86014593F6150091C232958581060690
:1000B000F5F9828000000000634E050263C3050469
:1000C0002E86AA857D5515C285466378B60063568F
:1000D000C00006068606E36CB6FE014563E4C50073
:1000E000918D558D85820582F5FA82808682C93F81
:1000F0002E8582823305A04063D70500B305B0404A
:10010000C1B7B305B0408682653F3305A040828207
:10011000868263C70500634905005D372E858282AC
:10012000B305B040E35B05FE3305A040513F330506
:10013000B04082820000711122C0400001A0711104
:1001400022C04000B7E700E03707EFBE13070708FB
:10015000B8C701A0211106CA22C82008232404FE22
:10016000232604FE232804FE85451145EF100014C4
:10017000854513050002EF10601389472314F4FE30
:10018000C1472328F4FE8D472326F4FE930784FEFF
:10019000BE85B717014013850780EF00D03D930758
:1001A000000F2314F4FE930780022328F4FE930724
:1001B00084FEBE8537150140EF00F03B9307F00940
:1001C0002314F4FE930780022328F4FE930784FE91
:1001D000BE85B717014013850740EF00D03991471E
:1001E0002314F4FE930780042328F4FE930784FE6F
:1001F000BE8537150140EF0010380100D24042445F
:1002000061018280797106D622D40018232404FE6D
:10021000232604FE232804FE232C04FC232E04FCA6
:10022000232004FE232204FE232804FC232A04FCAA
:1002300085454545EF10800789472314F4FE914713
:100240002328F4FE8D472326F4FE930784FEBE8503
:1002500037150140EF00303285450945EF00504D1C
:100260008947232CF4FC232E04FCC1472320F4FEF1
:1002700085472322F4FE930784FD3E85EF00B016E8
:10028000D1472308F4FC8547A308F4FC89472309D8
:10029000F4FC8547232AF4FC930704FD3E85EF0018
:1002A00010510100B250225445618280711122C068
:1002B0004000B7070020239C0702B7070020239CBB
:1002C00007020100024411018280711122C0400026
:1002D000B707002083C7070493F7F70F3E85024452
:1002E00011018280611122C22000B707002005475A
:1002F00023AEE702B71701409C47898BB1EB8545D8
:10030000B7370140138507C0EF10E00A8145B737C2
:100310000140138507C0EF10000FB707002083C707
:10032000070413F7F70F85476310F702B70700209C
:1003300083D78703C207C1838507139707014183CA
:10034000B7070020239CE7020945EF00D02065A8ED
:100350000945EF0050208145B7370140138507C09C
:10036000EF106005B7370140138507C0EF10C00BD1
:10037000AA87232CF4FE032784FF9307800C63F9DC
:10038000E702032784FF9307F07C63E3E702652E0F
:10039000B7070020239D0702B7070020239C070210
:1003A000B7070020238007040547A384E180A9A0A4
:1003B000B707002005472380E704B707002083D74D
:1003C000A703C207C1838507139707014183B707B6
:1003D0000020239DE702B707002083D7A7031397C8
:1003E000070141839307F00F63F8E700B707002088
:1003F00013070010239DE7028145B737014013859D
:1004000007C0EF00507B010012442101730020302F
:10041000711122C04000B707002083D7A703C2078D
:10042000C1833E85024411018280511106C422C25B
:1004300060008945B717014013850780EF00102B36
:100440008967138507F1EF101028A3840180A9A004
:10045000914537150140EF00D025AA8795EF8945D2
:10046000B717014013850780EF00702A2945EF1068
:1004700040328945B717014013850780EF001027E8
:1004800013054006EF10E03001009145371501409B
:10049000EF003022AA87F5DB83C7918093F7F70F2F
:1004A000C5DB7D2C8945B717014013850780EF0018
:1004B00010260100A240124431018280130181FD07
:1004C00006D222D02010232404FE232604FE232853
:1004D00004FE232C04FC232E04FC232004FE2322F0
:1004E00004FE8545916713850702EF00305C930792
:1004F00000022314F4FE8D472326F4FEE14723284F
:10050000F4FE930784FEBE85B717014013850740AC
:10051000EF007006930700042314F4FE914723288C
:10052000F4FE930784FEBE85B7170140138507408C
:10053000EF007004F16793870720232CF4FC231E3F
:1005400004FC231F04FC231004FE231204FEB14705
:100550002311F4FE930784FDBE85B7470140138540
:100560000780EF00306E8545B7470140138507804F
:10057000EF10A010010092500254130181028280FA
:10058000311106C822C640082326A4FEA30804FE93
:100590005145EF100020A30804FEB71701409C4707
:1005A0002319F4FE835724FF8A0793F7F70F93F775
:1005B00007F893F7F70FA308F4FE0545EF10601D49
:1005C000835724FFE207E18793F707041397870116
:1005D0006187834714FF93F7F70FE207E187D98F0D
:1005E000E207E18793F7F70FA308F4FE0545EF1044
:1005F000401A835724FF8987E207E18793F70702B0
:10060000139787016187834714FF93F7F70FE2077A
:10061000E187D98FE207E18793F7F70FA308F4FE8C
:100620000545EF100017835724FF8587E207E18710
:10063000A18B139787016187834714FF93F7F70F07
:10064000E207E187D98FE207E18793F7F70FA30865
:10065000F4FEB7170140938707409C472319F4FE27
:10066000835724FF9207E207E187C18B1397870125
:100670006187834714FF93F7F70FE207E187D98F6C
:10068000E207E18793F7F70FA308F4FE0545EF10A3
:1006900040100545EF10E00F835724FFE207E18784
:1006A000918B139787016187834714FF93F7F70FA7
:1006B000E207E187D98FE207E18793F7F70FA308F5
:1006C000F4FE0545EF10E00C835724FF8987E2070D
:1006D000E187898B139787016187834714FF93F71D
:1006E000F70FE207E187D98FE207E18793F7F70F6A
:1006F000A308F4FE0545EF10C009835724FF918736
:10070000E207E187858B139787016187834714FF91
:1007100093F7F70FE207E187D98FE207E18793F7B5
:10072000F70FA308F4FE834714FF13F7F70F83278F
:10073000C4FE98A3834714FF93F7F70F3E85C2408A
:10074000324451018280711122C040000547A385C7
:10075000E1800547A385E180010002441101828008
:10076000711122C04000A3850180A3850180010092
:10077000024411018280311106C822C64008054595
:10078000EF0050016922EF00D07BF167138507204D
:10079000EF10C007B707002083A70700BE85896751
:1007A000138507F2EF1000701D21AA87BE858967A7
:1007B000138507F3EF10006F1133A934613AB53197
:1007C000A30604FE9307D4FE3E855D3BAA873E87C1
:1007D0002385E180D52483C7B18013F7F70FA38564
:1007E000E18083C7B18013F7F70F8547E315F7FE64
:1007F000231804FE231704FE553C0947A385E18016
:100800000947A385E180231904FE39A80545EF00B7
:100810005078835724FF85072319F4FE035724FFDC
:100820009307007D6306F7004D34AA87E5D311A036
:10083000010013056004EF00D075D93EAA87231785
:10084000F4FE8357E4FEBE858967138507F4EF1035
:1008500060650357E4FE930700106309F70283C73E
:10086000A18093F7F70FC207C1830357E4FE631615
:10087000F700653E23A6018019A80947A385E180FA
:100880000947A385E18023A6018011A00100A1B73B
:10089000511106C422C26000B71702409843B7172F
:1008A00002401367170098C3B7170240D443B71725
:1008B00002403707FFF8758FD8C3B717024094433B
:1008C000B71702403707F7FE7D17758F98C3B71724
:1008D00002409443B71702403707FCFF7D17758F1E
:1008E00098C3B7170240D443B717024041777D172A
:1008F000758FD8C3B717024037079F0098C7414587
:100900006D27392A0100A240124431018280311141
:1009100006C822C64008232804FE232604FEB71773
:100920000240DC43B18B2328F4FE032704FF9147E8
:100930006303F702032704FFA1476307F702832736
:1009400004FFB9EFB707002037376E0113070760C0
:1009500023A0E700B9A8B707002037376E011307B7
:10096000076023A0E700B1A0B7170240D843C167D2
:10097000F98F2326F4FE8327C4FE91EBB7070020EE
:100980003777DC02130707C023A0E7001DA0B707D5
:1009900000203777DC02130707C023A0E70011A867
:1009A000B707002037376E011307076023A0E70061
:1009B0000100B7170240DC43918313F7F700B70734
:1009C000002093874700BA979C2393F7F70F2328BB
:1009D000F4FEB7170240DC4393F707088DE3B7072F
:1009E000002083A70700832504FF3E85EFF04FED2D
:1009F000AA873E87B707002023A0E70029A8B707EA
:100A0000002003A70700832704FF3357F700B70729
:100A1000002023A0E7000100C2403244510182803F
:100A2000511106C422C26000B7170240984FB71791
:100A300002401367070298CFB7170140938707401A
:100A40009843B7170140938707401377F7F098C38F
:100A5000B7170140938707409843B7170140938722
:100A600007401367070898C3B717014093870740EB
:100A7000094798CB31200100A24012443101828005
:100A8000711122C04000B72702409843B7270240A7
:100A9000719B98C337270240B7270240184398C379
:100AA000B7170240D843B717024013670702D8C3ED
:100AB0000100024411018280211106CA22C82008C7
:100AC0008545856713850780EF00407E8145B737F0
:100AD0000140138507C0EF00100E232404FE2326D7
:100AE00004FE231804FE930780DE2316F4FE8967B4
:100AF0009387F7F32314F4FE231704FE231504FE53
:100B0000930784FEBE85B7370140138507C0EF0009
:100B1000407E0100D24042446101828001A09701E1
:100B200000209381A1D1138181FC1305000A97F560
:100B3000FF1F9385254D17F6FF1F1306A64C63FA7A
:100B4000C5008322050023A0550011059105E3EAA5
:100B5000C5FE171500001305654097F5FF1F938527
:100B6000654A17F6FF1F1306664D63FAC500832218
:100B7000050023A0550011059105E3EAC5FE17F510
:100B8000FF1F1305A54B938581816377B500232053
:100B900005001105E36DB5FEB722000093820288BF
:100BA000739002308D427390428097F2FFFF9382E0
:100BB000624593E2320073905230EFF07FCD97029E
:100BC0000000938282BB7390123473002030711145
:100BD00022C04000B7F7FF1F9387477C9C433E85A8
:100BE000024411018280511122C46000232AA4FE14
:100BF000232C04FEB707014093870740232CF4FE03
:100C0000832744FFDC4763800712B70701409387BF
:100C100007409443832744FF9C4313C7F7FFB7075C
:100C2000014093870740758F98C3B70701409387AA
:100C30000740D443832744FF9C4313C7F7FFB707FC
:100C4000014093870740758FD8C3832744FFDC4357
:100C5000032784FFBA97232CF4FE832784FF944351
:100C6000832744FF9843832784FF558F98C3B70792
:100C70000140938707409447832744FF9C4313C751
:100C8000F7FFB707014093870740758F98C7B707ED
:100C9000014093870740D447832744FF9C4313C7F1
:100CA000F7FFB707014093870740758FD8C78327A1
:100CB00044FF9847C147631FF702B7070140938776
:100CC00007409447832744FF9843B7070140938721
:100CD0000740558F98C7B707014093870740D4470F
:100CE000832744FF9843B707014093870740558FF8
:100CF000D8C7B1A8B707014093870740232CF4FE5B
:100D0000832744FF9C47032784FFBA97232CF4FED4
:100D1000832784FF9443832744FF9843832784FFDA
:100D2000558F98C32DA0832744FFDC43032784FFFE
:100D3000BA97232CF4FE832784FF9443832744FF30
:100D40009C4313C7F7FF832784FF758F98C3010067
:100D5000224431018280611122C22000232CA4FE92
:100D6000B707014093870740032784FFD8CB0100D2
:100D70001244210182801301C1FD22D040102320A2
:100D8000A4FE232EB4FC232C04FE232604FE232AD7
:100D900004FE232404FE232804FE232204FE8327CA
:100DA000C4FD9C47BD8B232CF4FE8327C4FD9C47C8
:100DB000C18B89CB8327C4FDDC43032784FFD98FF4
:100DC000232CF4FE8327C4FD9E2393F7F70FE9CF6E
:100DD000832704FE9C432328F4FE232A04FE5DA8F7
:100DE000832744FF0547B317F7002324F4FE832726
:100DF000C4FD9E233E87832784FEF98F2326F4FEBD
:100E00000327C4FE832784FE6311F708832744FF6A
:100E10008A072324F4FE832784FE3D47B317F70097
:100E20002322F4FE832744FE93C7F7FF032704FF22
:100E3000F98F2328F4FE832784FE032784FFB3174A
:100E4000F700032704FFD98F2328F4FE8327C4FD6E
:100E5000984793078002631BF700832744FF0547E9
:100E60003317F700832704FED8CB05A08327C4FDE2
:100E7000984793078004631AF700832744FF0547C8
:100E80003317F700832704FE98CB832744FF850799
:100E9000232AF4FE032744FF9D47E3F3E7F4832767
:100EA00004FE032704FF98C301000254130141020A
:100EB0008280411122C60008232AA4FEAE8723198E
:100EC000F4FEA30D04FE832744FF9847835724FFB5
:100ED000F98F89C78547A30DF4FE19A0A30D04FE61
:100EE0008347B4FF3E85324441018280511122C4C0
:100EF0006000232CA4FEAE87231BF4FE035764FF7F
:100F0000832784FF98CB0100224431018280511154
:100F100022C46000232CA4FEAE87231BF4FE0357DB
:100F200064FF832784FFD8CB0100224431018280F3
:100F3000511122C46000AA872E87A30BF4FEBA8742
:100F4000230BF4FE232C04FE834764FF86070D4722
:100F5000B317F700232CF4FEB7070140944783270B
:100F600084FF13C7F7FFB7070140758F98C7B7070E
:100F700001409847834674FF834764FF8607B39711
:100F8000F600BE86B7070140558F98C7010022447E
:100F900031018280611122C22000232CA4FE03278C
:100FA00084FF23A8E1800100124421018280011105
:100FB00022CE00102320A4FE03A7018185476311E0
:100FC000F708832704FE983385476310F7048327C7
:100FD00004FE9C233E87832704FEBC239A07E20776
:100FE000E18793E707F8E207E18793F7F70F232CF0
:100FF000E4FEA30BF4FE37E700E0832784FFBA97F3
:10100000034774FF2380E74025A8832704FE9C3311
:1010100085EB832704FE9C233E87832704FEBC23A5
:101020009A0793F7F70F2328E4FEA307F4FE37E7A8
:1010300000E0832704FFBA970347F4FE2380E740CC
:10104000832704FEDC439DC7832704FE9C232324BF
:10105000F4FE832784FEFD8B0547B316F70037E7C0
:1010600000E0832784FE9583938707048A07BA9755
:1010700094C305A8832704FE9C232322F4FE832720
:1010800044FEFD8B0547B316F70037E700E08327E2
:1010900044FE9583938707068A07BA9794C30F1077
:1010A00000000100724405618280511122C4600079
:1010B000AA87A30BF4FE232C04FEB71702409C431F
:1010C000232CF4FE832784FF93F777F0232CF4FE80
:1010D000834774FF8E07032784FFD98F232CF4FEE8
:1010E000B7170240032784FF98C30100224431014F
:1010F0008280111106CC22CA60082322A4FE232874
:1011000004FE232604FE232404FEB7170240DC431A
:10111000B18B2328F4FE032704FF91476302F702F3
:10112000032704FFA1476305F702832704FFB9EBF8
:10113000832744FE37376E011307076098C399A8C9
:10114000832744FE37376E011307076098C399A0C1
:10115000B7170240D843C167F98F2326F4FE8327CF
:10116000C4FE89EB832744FE3777DC02130707C0F0
:1011700098C30DA0832744FE3777DC02130707C00E
:1011800098C309A8832744FE37376E011307076009
:1011900098C30100B7170240DC4393F7070F2328D9
:1011A000F4FE832704FF91832328F4FEB707002071
:1011B00013874701832704FFBA979C2393F7F70F00
:1011C0002324F4FEB7170240DC4393F7070899EF96
:1011D000832744FE9C43832584FE3E85EFE05FEE3B
:1011E000AA873E87832744FED8C319A8832744FED5
:1011F0009843832784FE3357F700832744FED8C3E0
:10120000832744FED843832744FE98C7832744FEA0
:10121000D843832744FED8C7B7170240D843C167D5
:1012200093870780F98F2328F4FE832704FFAD837B
:101230002328F4FE832704FF8D8313F737008327C9
:1012400004FF8A07F18BD98F2328F4FE832704FF3C
:1012500013F737018D4763F8E700832704FFD117A1
:101260002328F4FE31A0832704FF8D8B2328F4FE6E
:10127000B707002013874702832704FFBA979C23F0
:1012800093F7F70F2324F4FE832744FEDC478325DE
:1012900084FE3E85EFE0DFE2AA873E87832744FE97
:1012A00098CB0100E240524471018280511122C466
:1012B0006000232CA4FE232AB4FE832744FF99CB8D
:1012C000B7170240944FB7170240032784FF558F8A
:1012D00098CF21A8B7170240944F832784FF13C7E4
:1012E000F7FFB7170240758F98CF010022443101F4
:1012F0008280411122C60008232AA4FE2328B4FEBE
:10130000231D04FE832744FF9E23231DF4FE032791
:1013100044FFB7370140938707C06308F7000327EE
:1013200044FFB70700406310F7028357A4FF93F709
:10133000F7F8231DF4FE832704FFBA238357A4FF85
:10134000D98F231DF4FE8357A4FF93F7F7CF231DF6
:10135000F4FE832704FFFA238357A4FFD98F231DAC
:10136000F4FE832744FF0357A4FF9AA3832704FFB7
:10137000DA23832744FFDAB7832704FF9A238327DE
:1013800044FF9AB7032744FFB7370140938707C04C
:10139000631BF700832704FF9C27139707014183F2
:1013A000832744FF9ABB832744FF0547DAAB01003C
:1013B000324441018280511122C46000232CA4FEDA
:1013C000232AB4FE832744FF99CF832784FF9E23DB
:1013D000C207C18393E7170013970701418383274F
:1013E00084FF9AA329A8832784FF9E23C207C18371
:1013F000F99B139707014183832784FF9AA3010078
:10140000224431018280511122C46000232CA4FEA9
:10141000AE87231BF4FE832784FF035764FFDAB3F0
:101420000100224431018280611122C22000232C5C
:10143000A4FE832784FFDE33C207C1833E851244A6
:1014400021018280130141FC06DC22DA601823248A
:10145000A4FC2322B4FC232804FE232604FE232418
:1014600004FE232204FE232004FE832784FC232081
:10147000F4FE832784FC9E2BC207C1832328F4FE3D
:10148000032704FFB567FD17F98F2328F4FE832790
:1014900044FCFE233E87832704FFD98F2328F4FED4
:1014A000832704FF139707014183832784FC9AABAA
:1014B000832784FCDE27C207C1832328F4FE032789
:1014C00004FFBD679387379FF98F2328F4FE832796
:1014D00044FCDA23832744FC9E27D98F1397070106
:1014E0004183832744FCBE27D98FC207C1833E872F
:1014F000832704FFD98F2328F4FE832704FF139743
:1015000007014183832784FCDAA7832784FCDE2B31
:10151000C207C1832328F4FE032704FFC167938712
:10152000F7CFF98F2328F4FE832744FCDE273E877C
:10153000832704FFD98F2328F4FE832704FF139702
:1015400007014183832784FCDAAB9307C4FC3E8503
:101550004D36032704FEB747014093870780631782
:10156000F700832784FD2326F4FE29A0832744FD6A
:101570002326F4FE832784FCDE27C207C183C2072B
:10158000C18763D507020327C4FEBA878607BA97C7
:101590008E073E97832744FC9C438607BE853A8589
:1015A000EFE01FB2AA872324F4FE1DA00327C4FE88
:1015B000BA878607BA978E073E97832744FC9C43D9
:1015C0008A07BE853A85EFE0BFAFAA872324F4FEE1
:1015D000832784FE930540063E85EFE07FAEAA8711
:1015E00092072328F4FE832704FF13D74700BA8706
:1015F0008607BA978E07BA978A073E87832784FEA5
:10160000998F2322F4FE832784FCDE27C207C1833F
:10161000C207C18763D40702832744FE8E079387DE
:101620002703930540063E85EFE09FA9AA879D8B7F
:10163000032704FFD98F2328F4FE15A0832744FE37
:10164000920793872703930540063E85EFE05FA747
:10165000AA87BD8B032704FFD98F2328F4FE832795
:1016600004FF139707014183832784FC9AA7010095
:10167000E25052541301C1038280511122C4600010
:10168000232CA4FE232AB4FE832744FF85C383278B
:1016900084FFDE271397070141838967D98F13974A
:1016A00007014183832784FFDAA705A0832784FFEE
:1016B000DE27139707014183F977FD17F98F1397F9
:1016C00007014183832784FFDAA701002244310107
:1016D0008280511122C46000232CA4FEAE87231BFC
:1016E000F4FE835764FF93F7F71F139707014183B5
:1016F000832784FFDAA30100224431018280411153
:1017000022C60008232AA4FEAE872319F4FE232C48
:1017100004FE832744FF9E231397070141838357C9
:1017200024FFF98FC207C18389C78547232CF4FEA4
:1017300019A0232C04FE832784FF3E8532444101F7
:101740008280511106C422C26000B707002003A79F
:101750000700B7177A00938507203A85EFE05F9678
:10176000AA8713F7F70F238AE18083C74181C20755
:10177000C1833E8716071D8F0A07BA978E071397F6
:1017800007014183239BE1800100A2401244310103
:101790008280311106C822C640082326A4FEB7F76E
:1017A00000E0D843B7F700E0799BD8C383D76181C5
:1017B000BE850325C4FEEFE0BF8EAA872328F4FE72
:1017C000B7F700E0032704FF98CBB7F700E023A4A6
:1017D0000700B7F700E09843B7F700E0136717007A
:1017E00098C30100B7F700E0DC4313F71700854703
:1017F000E31AF7FEB7F700E09843B7F700E0799BEC
:1018000098C30100C240324451018280130141FD5E
:1018100006D422D26010232AA4FC85459167138543
:1018200007026934930700022314F4FE8D47232630
:10183000F4FEE1472328F4FE930784FEBE85B71724
:10184000014013850740EFF00FD3832744FD232C7D
:10185000F4FC231E04FC231F04FC231004FE2312AB
:1018600004FEA1472311F4FE930784FDBE85B7470C
:10187000014013850780F9368545B7470140138538
:101880000780E53B0100A25012541301C10282807F
:10189000011106CE22CC00102324A4FE2322B4FE84
:1018A0002320C4FE232804FE832704FE2326F4FEFF
:1018B000232804FE81A0010093050004B7470140DE
:1018C000138507802D3DAA87E5DB832744FE138718
:1018D00017002322E4FE83870700C207C183BE8569
:1018E000B747014013850780ED33832704FF850741
:1018F0002328F4FE032704FF832704FEE34DF7FAB1
:101900008327C4FE3E85F240624405618280411116
:1019100006C62EC00DCD1841AA8705C358417D5576
:1019200011CB8546631BD70098472300070023A2ED
:1019300007000545B240410182809847824614A3C2
:101940009847050798C7D8437D17D8C3DDB7054624
:101950008A853D3FF9BF011122CC2EC206CE26CA90
:101960002A84814793050002634506029245BE958D
:10197000838505008DE563D8C70263D4E702198E1D
:101980001305000293F526002AC089C501E79305D7
:1019900000032EC0858A814495EAB2840DA0850794
:1019A000F1B71D8EF1BF0146E1BF824522853AC8DD
:1019B00032C63EC4A93FA24732464247FD14E34621
:1019C00090FEB284635306008144058E63C7E7022C
:1019D000A68792463387974036978305070095ED93
:1019E000B28463449004635306000146F2406244AB
:1019F000D2443305F600056182801D8FBA879305B6
:101A00000003228532C83EC63AC41137B247224786
:101A10004246FD17EDF7BA9465BF228532C63EC433
:101A2000FD35A247324685076DB78245228532C40F
:101A30003EC2F13DFD142246924765B7397106DE7C
:101A400022DC26DA3EC232833A8689ED924693073B
:101A5000000301476C08FC86FD3DF2506254D254ED
:101A600021618280AA843684AE8791CA29470144C5
:101A70006317E30063D50500B307B040054486460D
:101A8000A309010213073103938666FC36C49A85C5
:101A90003E8532CA3AC81AC63EC0EFE02FE5A546D9
:101AA000824732434247524663D4A600A246369547
:101AB000130505039306F7FFA30FA7FE9A853E853E
:101AC00032CC3ACA1AC83EC636C0EFE06FDFB24722
:101AD00042435247624663F9670401CC29CA9247E0
:101AE000898BB1C79305D002268532C40D352246B5
:101AF0007D169247918B95C306479307100632C413
:101B0000930500032685631EF702113593058007B0
:101B10002685F53B224609047916164792468245EA
:101B20002685153D229515BFAA8702478DB78246A7
:101B30009307D0020144A38FF6FE9307E7FF3EC050
:101B40004DBFF13393058005E1B701458280014522
:101B50008280130181FD22D026CE06D22AC4AE8215
:101B6000328402C681448385020089EDA24781C781
:101B700081453E85693B925002542685F24413010B
:101B800081028280930750026388F500224516C8BF
:101B90008504B53BC24239A883871200138712001F
:101BA000639CB7002245930550023AC88D334247E3
:101BB0008504BA82850245BFD5DB9306B0026389EE
:101BC000D70463C8F600930630026386D7048147C2
:101BD00005A09306D002638AD70093060003E3981A
:101BE000D7FE13872200894721A01387220085474B
:101BF000830607001306B0026383C6046341D6025E
:101C000013063002638BC602BA820145A54681A045
:101C1000138722006DBF138722009147D1BF13069F
:101C2000D0026389C60013060003E39FC6FC93E756
:101C3000270031A005078547C1BF93E74700050787
:101C4000E1B713162500329506053A9585020386FD
:101C50000200130706FD9375F70FE3F4B6FE1307B2
:101C6000E0029946631EE60085028146A54503868B
:101C70000200130606FD1377F60F63F5E50236C67C
:101C8000038702001306A006630DC70A6343E6023A
:101C90001306C0046307C70A13068006630CC7084F
:101CA00081452DA813972600BA968606B29685021E
:101CB0007DBF130640076306C7081306A00763022B
:101CC000C7081306C0068145631AC70003861200C1
:101CD0008D456314E6008502914585020386020066
:101CE000930300061307100663C4C3001307100410
:101CF0009303700663C4C3069303500663537618B8
:101D00009303700463C1C30493055004635BB61668
:101D100013073004E310E6EA18409303440016CAA0
:101D2000230CE1001EC8A30C01000147BE862A86D1
:101D30002C0849A8038612008145E311E6FA8902BE
:101D400071BF8502B1BF93063006E307D6FC63CEB0
:101D5000C606930680056303D602A9BD9306300725
:101D60006304D60463CBC6029306F0066302D60E64
:101D70009306000793E74700E31ED6E29146639F70
:101D8000D50A930384000C40504016CA3AC23EC0A4
:101D90001EC8AA870147C146B9A093065007630829
:101DA000D6069306800745BF1840B7260000930368
:101DB0004400938506F511C3BA85324716CA1EC87A
:101DC000BE862A862245413E0DA091466394D502E7
:101DD000930384000C40504016CA3AC23EC01EC84D
:101DE000AA870547A94622458D33C243AA941E847B
:101DF000D242C9B3B2460C4016C836C23AC011042A
:101E00002A878546294622451539AA9461B3914609
:101E1000639DD500930384000C40504016CA3AC21B
:101E20003EC01EC8AA87014775BFB2460C4016C8FF
:101E300036C23AC011042A878146E9B7B24616C8AD
:101E40000C40414636C23AC011042A87814665BF1C
:101E50009146639ED500930384000C40504016CAFF
:101E60003AC23EC01EC8AA870147A146ADBFB246CE
:101E70000C4016C836C23AC011042A878146214652
:101E800059B70C401306840040403AC22A872245C5
:101E900032C83EC02286B687A94616CA4D39AA94D2
:101EA0004244B9B71301C1FD2EC832CAAA85100831
:101EB000014506C636CC3ACE3ED032C05939B24082
:101EC000130141028280411122C426C206C61C2190
:101ED000AA840144DC8183073100050499EFA947F6
:101EE0009305310005460145DC81EFF07F9A22859C
:101EF000B24022449244410182800546930531005C
:101F00000145EFF0FF98B38784009C23DC81E1B7A3
:101F1000626567696E5F63616C6C210D0000000093
:101F200053797374656D436C6B3A25640D0A000038
:101F30004368697049443A253038780D0A0000003A
:101F40006E756D20666C6174203D2025640D0A005D
:081F5000286E756C6C2900007D
:101F580000127A00010203040506070801020304BF
:101F68000506070801020304050607080102030421
:101F7800050607080204060804080C1008101820B3
:081F8800102030402040608071
:00000001FF
