:020000040800F2
:1000000000500020D9070008110700081907000850
:100010002107000829070008310700080000000038
:100020000000000000000000000000003907000888
:100030004507000800000000510700085D070008A0
:1000400021080008210800082108000821080008EC
:1000500021080008210800082108000821080008DC
:1000600021080008210800082108000821080008CC
:1000700021080008210800082108000821080008BC
:1000800021080008210800082108000821080008AC
:10009000210800082108000821080008210800089C
:1000A000690700087D07000891070008A5070008F8
:1000B000B9070008210800082108000821080008E5
:1000C000210800082108000821080008210800086C
:1000D000210800082108000821080008210800085C
:1000E000210800082108000821080008000000007D
:1000F0000000000000000000000000000000000000
:0C01000000000000000000005FF808F1A3
:10010C0010B5054C237833B9044B13B10448AFF345
:10011C0000800123237010BD0C00002000000000A3
:10012C00D029000808B5034B1BB103490348AFF3B2
:10013C00008008BD0000000010000020D02900083D
:10014C0080B483B000AF78607B681B68094A934227
:10015C000BD1094B1B680133074A1360064B1B6814
:10016C000F2B02D1034BB7225A6300BF0C37BD468D
:10017C0080BC7047002C0140BC00002080B483B0D0
:10018C0000AF78607B681B68B3F1804F15D10D4BC5
:10019C001B881A460C4B9A5C0C4B5A63094B1B88F8
:1001AC0042F2DD22934202D1064B00221A80054B0B
:1001BC001B8801339AB2034B1A8000BF0C37BD4623
:1001CC0080BC7047B8000020E8290008002C0140D2
:1001DC0080B582B000AF78600021084801F0AEFB1A
:1001EC00074B00225A62064B8C225A6300210348AB
:1001FC0001F008FC00BF0837BD4680BD2800002078
:10020C00002C014080B500AF244B5B68234A23F0DF
:10021C0008035360214BDB68204A23F48073D360BE
:10022C0041F2A40000F05AFB1C4BDB681B4A43F460
:10023C008073D3604FF4827000F050FB174BDB6877
:10024C00164A23F48073D360144B5B68134A43F053
:10025C000803536000F068F900F07AF84FF48270EC
:10026C0000F03CFBFF20FFF7B3FF4FF47A7000F077
:10027C0035FB0B4B4FF48072DA62094B10229A62F9
:10028C000021084801F0AEFC0021064801F0B4FA48
:10029C00054801F007FA00BF80BD00BF000801400F
:1002AC00002C0140280000207000002080B500AF19
:1002BC0000F0B2FA00F00AF800F036F900F048F855
:1002CC0000F0E6F8FFF79EFF00BFFDE780B590B0A9
:1002DC0000AF07F1180328220021184602F045FB55
:1002EC003B1D00221A605A609A60DA601A61022380
:1002FC00BB610123BB621023FB6202237B630023DF
:10030C00BB634FF46013FB6307F11803184600F04E
:10031C009BFD0346002B01D000F01CF90F237B60E2
:10032C000223BB600023FB604FF480633B6100231E
:10033C007B613B1D0221184601F008F80346002B97
:10034C0001D000F007F900BF4037BD4680BD00006A
:10035C0080B596B000AF07F1480300221A605A60CE
:10036C009A60DA6007F1400300221A605A6007F1C4
:10037C00240300221A605A609A60DA601A615A618A
:10038C009A613B1D20220021184602F0EEFA3E4BEA
:10039C003E4A1A603C4B3F225A603B4B00229A600B
:1003AC00394BB722DA60384B00221A61364B0022E7
:1003BC005A61354B80229A61334801F023F9034688
:1003CC00002B01D000F0C6F84FF48053BB6407F14A
:1003DC00480319462C4801F081FE0346002B01D03E
:1003EC0000F0B8F8284801F0AFF90346002B01D013
:1003FC0000F0B0F800233B6400237B6407F140035A
:10040C001946214802F0F0F90346002B01D000F008
:10041C00A1F860237B62A023BB620223FB62002352
:10042C003B6300237B630023BB630023FB6307F167
:10043C00240300221946144801F08EFD0346002BBC
:10044C0001D000F087F800237B600023BB60002301
:10045C00FB6000233B6100237B614FF40053BB61C5
:10046C0000233B623B1D1946074802F01BFA03466A
:10047C00002B01D000F06EF8034800F0FBF800BF31
:10048C005837BD4680BD00BF28000020002C01401D
:10049C0080B586B000AF07F1080300221A605A60DD
:1004AC009A60DA603B4600221A605A601D4B4FF08E
:1004BC0080421A601B4B00225A601A4B00229A6031
:1004CC00184B41F63F72DA60164B00221A61154B3D
:1004DC0080229A61134801F095F80346002B01D055
:1004EC0000F038F84FF48053BB6007F1080319464D
:1004FC000C4801F0F3FD0346002B01D000F02AF864
:10050C0000233B6000237B603B461946054802F004
:10051C006BF90346002B01D000F01CF800BF183714
:10052C00BD4680BD7000002080B483B000AF084B86
:10053C009B69074A43F004039361054B9B6903F0E5
:10054C0004037B607B6800BF0C37BD4680BC7047E2
:10055C000010024080B400AF72B600BF00BFFDE7D0
:10056C0080B485B000AF154B9B69144A43F001036E
:10057C009361124B9B6903F00103BB60BB680F4B8B
:10058C00DB690E4A43F08053D3610C4BDB6903F0FB
:10059C0080537B607B680A4B5B68FB60FB6823F0D5
:1005AC00E063FB60FB6843F00073FB60044AFB688C
:1005BC00536000BF1437BD4680BC7047001002402A
:1005CC000000014080B584B000AF78607B681B6888
:1005DC00264A93422CD1264B9B69254A43F400634F
:1005EC009361234B9B6903F40063FB60FB6800225F
:1005FC000021182000F06DFA182000F086FA002275
:10060C000021192000F065FA192000F07EFA002272
:10061C0000211A2000F05DFA1A2000F076FA002270
:10062C0000211B2000F055FA1B2000F06EFA18E098
:10063C007B681B68B3F1804F13D10D4BDB690C4AFF
:10064C0043F00103D3610A4BDB6903F00103BB6088
:10065C00BB68002200211C2000F03BFA1C2000F09B
:10066C0054FA00BF1037BD4680BD00BF002C0140BE
:10067C000010024080B588B000AF786007F10C0321
:10068C0000221A605A609A60DA607B681B68194A0B
:10069C0093422AD1184B9B69174A43F00403936188
:1006AC00154B9B6903F00403BB60BB684FF4C0732C
:1006BC00FB6002233B610223BB6107F10C0319466B
:1006CC000E4800F03DFA0E4B5B68FB61FB6923F0B2
:1006DC00C003FB61FB6943F0E063FB61FB6943F022
:1006EC004003FB61064AFB69536000BF2037BD46DF
:1006FC0080BD00BF002C01400010024000080140EA
:10070C000000014080B400AF00BFFDE780B400AF33
:10071C0000BFFDE780B400AF00BFFDE780B400AFC1
:10072C0000BFFDE780B400AF00BFFDE780B400AFB1
:10073C0000BFBD4680BC704780B400AF00BFBD4653
:10074C0080BC704780B400AF00BFBD4680BC704712
:10075C0080B500AF00F0A6F800BF80BD80B500AF3B
:10076C00024801F0F1FA00BF80BD00BF2800002054
:10077C0080B500AF024801F0E7FA00BF80BD00BFB2
:10078C002800002080B500AF024801F0DDFA00BF60
:10079C0080BD00BF2800002080B500AF024801F0EA
:1007AC00D3FA00BF80BD00BF2800002080B500AF89
:1007BC00024801F0C9FA00BF80BD00BF70000020E4
:1007CC0080B400AF00BFBD4680BC7047FFF7F8FF98
:1007DC000B480C490C4A002302E0D458C450043393
:1007EC00C4188C42F9D3094A094C002301E0136068
:1007FC000432A242FBD302F0C1F8FFF757FD704759
:10080C00000000200C000020F44C00080C0000201C
:10081C00C4000020FEE7000080B500AF084B1B6849
:10082C00074A43F010031360032000F047F90F2030
:10083C0000F008F8FFF794FE0023184680BD00BFB7
:10084C000020024080B582B000AF7860124B1A686D
:10085C00124B1B7819464FF47A73B3FBF1F3B2FBCE
:10086C00F3F3184600F05FF90346002B01D0012387
:10087C000EE07B680F2B0AD8002279684FF0FF300E
:10088C0000F027F9064A7B681360002300E001237F
:10089C0018460837BD4680BD000000200800002027
:1008AC000400002080B400AF054B1B781A46054BA2
:1008BC001B681344034A136000BFBD4680BC7047DD
:1008CC0008000020C000002080B400AF024B1B6861
:1008DC001846BD4680BC7047C000002080B584B06F
:1008EC0000AF7860FFF7F0FFB8607B68FB60FB68D7
:1008FC00B3F1FF3F05D00A4B1B781A46FB68134433
:10090C00FB6000BFFFF7E0FF0246BB68D31AFA6832
:10091C009A42F7D800BF00BF1037BD4680BD00BF5C
:10092C000800002080B485B000AF78607B6803F0CD
:10093C000703FB600C4BDB68BB60BA684FF6FF0328
:10094C001340BB60FB681A02BB68134343F0BF63E0
:10095C0043F40033BB60044ABB68D36000BF143758
:10096C00BD4680BC704700BF00ED00E080B400AF16
:10097C00044BDB681B0A03F007031846BD4680BC1A
:10098C00704700BF00ED00E080B483B000AF0346B9
:10099C00FB7197F90730002B0BDBFB7903F01F027F
:1009AC00064997F907305B09012000FA02F241F879
:1009BC00232000BF0C37BD4680BC704700E100E02F
:1009CC0080B483B000AF03463960FB7197F90730F0
:1009DC00002B0ADB3B68DAB20C4997F9073012019D
:1009EC00D2B20B4483F800230AE03B68DAB2084920
:1009FC00FB7903F00F03043B1201D2B20B441A76BD
:100A0C0000BF0C37BD4680BC704700BF00E100E062
:100A1C0000ED00E080B489B000AFF860B9607A6096
:100A2C00FB6803F00703FB61FB69C3F10703042BAD
:100A3C0028BF0423BB61FB690433062B02D9FB6975
:100A4C00033B00E000237B614FF0FF32BB6902FAED
:100A5C0003F3DA43BB681A407B699A404FF0FF31CD
:100A6C007B6901FA03F3D9437B680B4013431846A7
:100A7C002437BD4680BC704780B582B000AF78602B
:100A8C007B68013BB3F1807F01D301230FE00A4A5D
:100A9C007B68013B53600F214FF0FF30FFF790FF55
:100AAC00054B00229A60044B07221A60002318465B
:100ABC000837BD4680BD00BF10E000E080B582B0B5
:100ACC0000AF78607868FFF72DFF00BF0837BD4690
:100ADC0080BD80B586B000AF0346B9607A60FB7309
:100AEC0000237B61FFF742FF78617A68B968786907
:100AFC00FFF790FF024697F90F3011461846FFF7A3
:100B0C005FFF00BF1837BD4680BD80B582B000AF17
:100B1C000346FB7197F907301846FFF735FF00BF06
:100B2C000837BD4680BD80B582B000AF786078686C
:100B3C00FFF7A2FF034618460837BD4680BD0000EC
:100B4C0080B48BB000AF7860396000237B620023E7
:100B5C003B6269E101227B6A02FA03F3FB613B68A9
:100B6C001B68FA691340BB61BA69FB699A4240F091
:100B7C0058813B685B689A4A93425ED0984A93428C
:100B8C0075D8984A934258D0964A93426FD8964A51
:100B9C00934252D0944A934269D8944A93424CD08F
:100BAC00924A934263D8924A934246D0904A9342D7
:100BBC005DD8122B2AD8122B59D801A252F823F047
:100BCC00470C0008210C0008330C0008750C0008B9
:100BDC007B0C00087B0C00087B0C00087B0C0008CD
:100BEC007B0C00087B0C00087B0C00087B0C0008BD
:100BFC007B0C00087B0C00087B0C00087B0C0008AD
:100C0C007B0C0008290C00083D0C0008794A934223
:100C1C0013D02CE03B68DB683B6229E03B68DB6867
:100C2C0004333B6224E03B68DB6808333B621FE023
:100C3C003B68DB680C333B621AE03B689B68002B1B
:100C4C0002D104233B6213E03B689B68012B05D166
:100C5C0008233B627B68FA691A6109E008233B624E
:100C6C007B68FA695A6103E000233B6200E000BF35
:100C7C00BB69FF2B01D87B6801E07B6804337B6187
:100C8C00BB69FF2B02D87B6A9B0002E07B6A083BA6
:100C9C009B003B617B691A680F213B6901FA03F3E6
:100CAC00DB431A40396A3B6901FA03F31A437B6947
:100CBC001A603B685B6803F08053002B00F0B18036
:100CCC004D4B9B694C4A43F0010393614A4B9B6922
:100CDC0003F00103BB60BB68484A7B6A9B08023384
:100CEC0052F82330FB607B6A03F003039B000F2256
:100CFC0002FA03F3DB43FA681340FB607B68404A5B
:100D0C00934213D07B683F4A93420DD07B683E4A96
:100D1C00934207D07B683D4A934201D1032306E0FE
:100D2C00042304E0022302E0012300E000237A6A9A
:100D3C0002F0030292009340FA681343FB602F49C0
:100D4C007B6A9B080233FA6841F823203B685B6896
:100D5C0003F48013002B06D02D4B9A682C49BB69E9
:100D6C0013438B6006E02A4B9A68BB69DB43284926
:100D7C0013408B603B685B6803F40013002B06D0B8
:100D8C00234BDA682249BB691343CB6006E0204B46
:100D9C00DA68BB69DB431E491340CB603B685B6878
:100DAC0003F40033002B06D0194B5A681849BB6961
:100DBC0013434B6006E0164B5A68BB69DB4314497E
:100DCC0013404B603B685B6803F48033002B21D0ED
:100DDC000F4B1A680E49BB6913430B6021E000BF2F
:100DEC000000321000003110000022100000211011
:100DFC000000121000001110001002400000014011
:100E0C0000080140000C014000100140001401409A
:100E1C00000401400B4B1A68BB69DB4309491340C2
:100E2C000B607B6A01337B623B681A687B6A22FA2F
:100E3C0003F3002B7FF48EAE00BF00BF2C37BD46F2
:100E4C0080BC70470004014080B586B000AF78606C
:100E5C007B68002B01D1012372E27B681B6803F0D5
:100E6C000103002B00F08780924B5B6803F00C03AE
:100E7C00042B0CD08F4B5B6803F00C03082B12D1A6
:100E8C008C4B5B6803F48033B3F5803F0BD1894BFB
:100E9C001B6803F40033002B6CD07B685B68002B61
:100EAC0068D101234CE27B685B68B3F5803F06D1C7
:100EBC00804B1B687F4A43F4803313602EE07B68C1
:100ECC005B68002B0CD17B4B1B687A4A23F4803374
:100EDC001360784B1B68774A23F4802313601DE062
:100EEC007B685B68B3F5A02F0CD1724B1B68714A01
:100EFC0043F4802313606F4B1B686E4A43F48033BA
:100F0C0013600BE06B4B1B686A4A23F4803313604D
:100F1C00684B1B68674A23F4802313607B685B680B
:100F2C00002B13D0FFF7D0FC386108E0FFF7CCFCA6
:100F3C0002463B69D31A642B01D9032300E25D4BB3
:100F4C001B6803F40033002BF0D014E0FFF7BCFC5B
:100F5C00386108E0FFF7B8FC02463B69D31A642BF2
:100F6C0001D90323ECE1534B1B6803F40033002B32
:100F7C00F0D100E000BF7B681B6803F00203002B7C
:100F8C0063D04C4B5B6803F00C03002B0BD0494B2C
:100F9C005B6803F00C03082B1CD1464B5B6803F415
:100FAC008033002B16D1434B1B6803F00203002B3C
:100FBC0005D07B681B69012B01D00123C0E13D4B9F
:100FCC001B6823F0F8027B685B69DB00394913432B
:100FDC000B603AE07B681B69002B20D0364B01225A
:100FEC001A60FFF771FC386108E0FFF76DFC0246F0
:100FFC003B69D31A022B01D90323A1E12D4B1B68AA
:10100C0003F00203002BF0D02A4B1B6823F0F802EC
:10101C007B685B69DB00274913430B6015E0264BAB
:10102C0000221A60FFF750FC386108E0FFF74CFC17
:10103C0002463B69D31A022B01D9032380E11D4BD5
:10104C001B6803F00203002BF0D17B681B6803F0D4
:10105C000803002B3AD07B689B69002B19D0174BE7
:10106C0001221A60FFF730FC386108E0FFF72CFC16
:10107C0002463B69D31A022B01D9032360E10D4BC5
:10108C005B6A03F00203002BF0D0012000F09CFA05
:10109C001CE00A4B00221A60FFF716FC38610FE0C7
:1010AC00FFF712FC02463B69D31A022B08D9032323
:1010BC0046E100BF00100240000042428004424260
:1010CC00924B5B6A03F00203002BE9D17B681B682F
:1010DC0003F00403002B00F0A6800023FB758B4B60
:1010EC00DB6903F08053002B0DD1884BDB69874AF9
:1010FC0043F08053D361854BDB6903F08053BB60B5
:10110C00BB680123FB75824B1B6803F48073002BB7
:10111C0018D17F4B1B687E4A43F480731360FFF732
:10112C00D3FB386108E0FFF7CFFB02463B69D31ACB
:10113C00642B01D9032303E1754B1B6803F4807303
:10114C00002BF0D07B68DB68012B06D16F4B1B6A40
:10115C006E4A43F0010313622DE07B68DB68002BC1
:10116C000CD16A4B1B6A694A23F001031362674B6B
:10117C001B6A664A23F0040313621CE07B68DB687D
:10118C00052B0CD1614B1B6A604A43F004031362BC
:10119C005E4B1B6A5D4A43F0010313620BE05B4B31
:1011AC001B6A5A4A23F001031362584B1B6A574AB5
:1011BC0023F0040313627B68DB68002B15D0FFF768
:1011CC0083FB38610AE0FFF77FFB02463B69D31AC9
:1011DC0041F28832934201D90323B1E04B4B1B6A95
:1011EC0003F00203002BEED014E0FFF76DFB386127
:1011FC000AE0FFF769FB02463B69D31A41F28832D9
:10120C00934201D903239BE0404B1B6A03F002037A
:10121C00002BEED1FB7D012B05D13C4BDB693B4A0E
:10122C0023F08053D3617B68DB69002B00F087804F
:10123C00364B5B6803F00C03082B61D07B68DB69D1
:10124C00022B46D1334B00221A60FFF73DFB38616D
:10125C0008E0FFF739FB02463B69D31A022B01D990
:10126C0003236DE0294B1B6803F00073002BF0D1B6
:10127C007B681B6AB3F5803F08D1244B5B6823F471
:10128C0000327B689B68214913434B601F4B5B68A2
:10129C0023F474127B68196A7B685B6A0B431B49E5
:1012AC0013434B601B4B01221A60FFF70DFB386197
:1012BC0008E0FFF709FB02463B69D31A022B01D960
:1012CC0003233DE0114B1B6803F00073002BF0D09F
:1012DC0035E0104B00221A60FFF7F6FA386108E08F
:1012EC00FFF7F2FA02463B69D31A022B01D903230A
:1012FC0026E0064B1B6803F00073002BF0D11EE0B8
:10130C007B68DB69012B07D1012319E00010024037
:10131C0000700040600042420B4B5B68FB60FB6856
:10132C0003F480327B681B6A9A4206D1FB6803F493
:10133C0070127B685B6A9A4201D0012300E00023A3
:10134C0018461837BD4680BD0010024080B584B0E9
:10135C0000AF786039607B68002B01D10123D0E0AD
:10136C006A4B1B6803F007033A689A4210D9674B23
:10137C001B6823F0070265493B6813430B60634B02
:10138C001B6803F007033A689A4201D00123B8E0C6
:10139C007B681B6803F00203002B20D07B681B6862
:1013AC0003F00403002B05D0594B5B68584A43F4F7
:1013BC00E06353607B681B6803F00803002B05D0C7
:1013CC00534B5B68524A43F460535360504B5B6819
:1013DC0023F0F0027B689B684D4913434B607B689C
:1013EC001B6803F00103002B40D07B685B68012B6A
:1013FC0007D1474B1B6803F40033002B15D1012395
:10140C007FE07B685B68022B07D1414B1B6803F0C4
:10141C000073002B09D1012373E03D4B1B6803F0D3
:10142C000203002B01D101236BE0394B5B6823F0E5
:10143C0003027B685B68364913434B60FFF744FA41
:10144C00F8600AE0FFF740FA0246FB68D31A41F253
:10145C008832934201D9032353E02D4B5B6803F090
:10146C000C027B685B689B009A42EBD1274B1B6894
:10147C0003F007033A689A4210D2244B1B6823F0FE
:10148C00070222493B6813430B60204B1B6803F097
:10149C0007033A689A4201D0012332E07B681B684B
:1014AC0003F00403002B08D0194B5B6823F4E062B3
:1014BC007B68DB68164913434B607B681B6803F041
:1014CC000803002B09D0124B5B6823F460527B6835
:1014DC001B69DB000E4913434B6000F021F80246F8
:1014EC000B4B5B681B0903F00F030A49CB5C22FA18
:1014FC0003F3094A1360094B1B681846FFF7A2F95E
:10150C00002318461037BD4680BD00BF00200240A6
:10151C0000100240C84C000800000020040000200D
:10152C0080B487B000AF0023FB600023BB600023B6
:10153C007B6100237B6000233B611E4B5B68FB607F
:10154C00FB6803F00C03042B02D0082B03D027E01C
:10155C00194B3B6127E0FB689B0C03F00F03174A08
:10156C00D35C7B60FB6803F48033002B10D0114BF1
:10157C005B685B0C03F00103114AD35CBB607B68B6
:10158C000D4A03FB02F2BB68B2FBF3F37B6104E090
:10159C007B680C4A02FB03F37B617B693B6102E0D5
:1015AC00054B3B6100BF3B6918461C37BD4680BCF0
:1015BC00704700BF0010024000127A00D84C00089F
:1015CC00E84C000800093D0080B485B000AF78609D
:1015DC000A4B1B680A4AA2FB03235B0A7A6802FBCC
:1015EC0003F3FB6000BFFB685A1EFA60002BF9D1B5
:1015FC0000BF00BF1437BD4680BC70470000002000
:10160C00D34D621080B582B000AF78607B68002B40
:10161C0001D1012341E07B6893F83D30DBB2002B14
:10162C0006D17B68002283F83C207868FEF7CAFF5D
:10163C007B68022283F83D207B681A687B68043340
:10164C001946104600F02CFE7B68012283F84620D8
:10165C007B68012283F83E207B68012283F83F20BF
:10166C007B68012283F840207B68012283F84120AB
:10167C007B68012283F842207B68012283F8432097
:10168C007B68012283F844207B68012283F8452083
:10169C007B68012283F83D20002318460837BD469D
:1016AC0080BD000080B485B000AF78607B6893F893
:1016BC003D30DBB2012B01D001233AE07B680222E2
:1016CC0083F83D207B681B68DA687B681B6842F0F6
:1016DC000102DA607B681B68184A93420ED07B6863
:1016EC001B68B3F1804F09D07B681B68144A934286
:1016FC0004D07B681B68134A934211D17B681B682A
:10170C009B6803F00703FB60FB68062B10D07B681B
:10171C001B681A687B681B6842F001021A6007E0BC
:10172C007B681B681A687B681B6842F001021A60B0
:10173C00002318461437BD4680BC7047002C01406E
:10174C00000400400008004080B582B000AF786013
:10175C007B68002B01D1012341E07B6893F83D307D
:10176C00DBB2002B06D17B68002283F83C20786822
:10177C0000F039F87B68022283F83D207B681A68F8
:10178C007B6804331946104600F08AFD7B68012201
:10179C0083F846207B68012283F83E207B68012277
:1017AC0083F83F207B68012283F840207B6801226C
:1017BC0083F841207B68012283F842207B68012258
:1017CC0083F843207B68012283F844207B68012244
:1017DC0083F845207B68012283F83D2000231846BE
:1017EC000837BD4680BD80B483B000AF786000BFC1
:1017FC000C37BD4680BC704780B584B000AF7860B4
:10180C0039603B68002B09D17B6893F83E30DBB222
:10181C00012B14BF01230023DBB222E03B68042B15
:10182C0009D17B6893F83F30DBB2012B14BF012345
:10183C000023DBB215E03B68082B09D17B6893F8D9
:10184C004030DBB2012B14BF01230023DBB208E0D4
:10185C007B6893F84130DBB2012B14BF01230023CA
:10186C00DBB2002B01D001235EE03B68002B04D1DE
:10187C007B68022283F83E2013E03B68042B04D1E2
:10188C007B68022283F83F200BE03B68082B04D1D5
:10189C007B68022283F8402003E07B68022283F8F5
:1018AC0041207B681B6801223968184600F078FFDC
:1018BC007B681B681E4A934207D17B681B685A6C75
:1018CC007B681B6842F400425A647B681B68184AA8
:1018DC0093420ED07B681B68B3F1804F09D07B68B4
:1018EC001B68144A934204D07B681B68124A9342CB
:1018FC0011D17B681B689B6803F00703FB60FB68D6
:10190C00062B10D07B681B681A687B681B6842F03A
:10191C0001021A6007E07B681B681A687B681B6809
:10192C0042F001021A60002318461037BD4680BDF4
:10193C00002C0140000400400008004080B582B03B
:10194C0000AF786039607B681B68002239681846E4
:10195C0000F026FF7B681B68294A934217D17B68ED
:10196C001B681A6A41F211131340002B0FD17B68CC
:10197C001B681A6A40F244431340002B07D17B6862
:10198C001B685A6C7B681B6822F400425A647B68A3
:10199C001B681A6A41F211131340002B0FD17B689C
:1019AC001B681A6A40F244431340002B07D17B6832
:1019BC001B681A687B681B6822F001021A603B687E
:1019CC00002B04D17B68012283F83E2013E03B6896
:1019DC00042B04D17B68012283F83F200BE03B6889
:1019EC00082B04D17B68012283F8402003E07B683C
:1019FC00012283F84120002318460837BD4680BDDC
:101A0C00002C014080B584B000AF786039600023B1
:101A1C00FB733B68002B09D17B6893F83E30DBB23B
:101A2C00012B14BF01230023DBB222E03B68042B03
:101A3C0009D17B6893F83F30DBB2012B14BF012333
:101A4C000023DBB215E03B68082B09D17B6893F8C7
:101A5C004030DBB2012B14BF01230023DBB208E0C2
:101A6C007B6893F84130DBB2012B14BF01230023B8
:101A7C00DBB2002B01D00123A9E03B68002B04D181
:101A8C007B68022283F83E2013E03B68042B04D1D0
:101A9C007B68022283F83F200BE03B68082B04D1C3
:101AAC007B68022283F8402003E07B68022283F8E3
:101ABC0041203B680C2B41D801A252F823F000BF07
:101ACC00011B0008491B0008491B0008491B0008A2
:101ADC00131B0008491B0008491B0008491B000880
:101AEC00251B0008491B0008491B0008491B00085E
:101AFC00371B00087B681B68DA687B681B6842F040
:101B0C000202DA601DE07B681B68DA687B681B6880
:101B1C0042F00402DA6014E07B681B68DA687B68C8
:101B2C001B6842F00802DA600BE07B681B68DA681D
:101B3C007B681B6842F01002DA6002E00123FB7341
:101B4C0000BFFB7B002B41D17B681B6801223968ED
:101B5C00184600F025FE7B681B681F4A934207D18C
:101B6C007B681B685A6C7B681B6842F400425A64A1
:101B7C007B681B68184A93420ED07B681B68B3F1D4
:101B8C00804F09D07B681B68144A934204D07B6851
:101B9C001B68134A934211D17B681B689B6803F046
:101BAC000703BB60BB68062B10D07B681B681A68E8
:101BBC007B681B6842F001021A6007E07B681B68B7
:101BCC001A687B681B6842F001021A60FB7B18469E
:101BDC001037BD4680BD00BF002C01400004004002
:101BEC000008004080B584B000AF786039600023F5
:101BFC00FB733B680C2B41D801A252F823F000BFB9
:101C0C00411C0008891C0008891C0008891C00085C
:101C1C00531C0008891C0008891C0008891C00083A
:101C2C00651C0008891C0008891C0008891C000818
:101C3C00771C00087B681B68DA687B681B6822F0DD
:101C4C000202DA601DE07B681B68DA687B681B683F
:101C5C0022F00402DA6014E07B681B68DA687B68A7
:101C6C001B6822F00802DA600BE07B681B68DA68FC
:101C7C007B681B6822F01002DA6002E00123FB7320
:101C8C0000BFFB7B002B57D17B681B680022396897
:101C9C00184600F085FD7B681B682A4A934217D1D1
:101CAC007B681B681A6A41F211131340002B0FD189
:101CBC007B681B681A6A40F244431340002B07D11F
:101CCC007B681B685A6C7B681B6822F400425A6460
:101CDC007B681B681A6A41F211131340002B0FD159
:101CEC007B681B681A6A40F244431340002B07D1EF
:101CFC007B681B681A687B681B6822F001021A60FB
:101D0C003B68002B04D17B68012283F83E2013E052
:101D1C003B68042B04D17B68012283F83F200BE045
:101D2C003B68082B04D17B68012283F8402003E038
:101D3C007B68012283F84120FB7B18461037BD4697
:101D4C0080BD00BF002C014080B582B000AF786030
:101D5C007B681B681B6903F00203022B22D17B6892
:101D6C001B68DB6803F00203022B1BD17B681B682A
:101D7C006FF002021A617B6801221A777B681B687C
:101D8C009B6903F00303002B03D0786800F076FA0C
:101D9C0005E0786800F069FA7868FEF7D1F97B689D
:101DAC0000221A777B681B681B6903F00403042B61
:101DBC0022D17B681B68DB6803F00403042B1BD166
:101DCC007B681B686FF004021A617B6802221A7729
:101DDC007B681B689B6903F44073002B03D0786805
:101DEC0000F04CFA05E0786800F03FFA7868FEF7EE
:101DFC00A7F97B6800221A777B681B681B6903F0C4
:101E0C000803082B22D17B681B68DB6803F00803EE
:101E1C00082B1BD17B681B686FF008021A617B686A
:101E2C0004221A777B681B68DB6903F00303002B21
:101E3C0003D0786800F022FA05E0786800F015FA13
:101E4C007868FEF77DF97B6800221A777B681B683F
:101E5C001B6903F01003102B22D17B681B68DB6815
:101E6C0003F01003102B1BD17B681B686FF0100262
:101E7C001A617B6808221A777B681B68DB6903F49C
:101E8C004073002B03D0786800F0F8F905E078680F
:101E9C0000F0EBF97868FEF753F97B6800221A77AB
:101EAC007B681B681B6903F00103012B0ED17B6857
:101EBC001B68DB6803F00103012B07D17B681B68EF
:101ECC006FF001021A617868FEF758F97B681B689D
:101EDC001B6903F08003802B0ED17B681B68DB68C9
:101EEC0003F08003802B07D17B681B686FF08002A6
:101EFC001A61786800F030FD7B681B681B6903F081
:101F0C004003402B0ED17B681B68DB6803F0400359
:101F1C00402B07D17B681B686FF040021A61786810
:101F2C0000F0B5F97B681B681B6903F02003202BBC
:101F3C000ED17B681B68DB6803F02003202B07D1D4
:101F4C007B681B686FF020021A61786800F0FBFC5C
:101F5C0000BF0837BD4680BD80B586B000AFF860C5
:101F6C00B9607A600023FB75FB6893F83C30012B59
:101F7C0001D10223AEE0FB68012283F83C207B6890
:101F8C000C2B00F29F8001A252F823F0CD1F000809
:101F9C00D1200008D1200008D12000080D20000815
:101FAC00D1200008D1200008D12000084F200008C3
:101FBC00D1200008D1200008D12000088F20000873
:101FCC00FB681B68B968184600F0CCF9FB681B6805
:101FDC009A69FB681B6842F008029A61FB681B68EF
:101FEC009A69FB681B6822F004029A61FB681B6803
:101FFC009969BB681A69FB681B680A439A6164E0BB
:10200C00FB681B68B968184600F012FAFB681B687D
:10201C009A69FB681B6842F400629A61FB681B6852
:10202C009A69FB681B6822F480629A61FB681B68E2
:10203C009969BB681B691A02FB681B680A439A61A1
:10204C0043E0FB681B68B968184600F05BFAFB6854
:10205C001B68DA69FB681B6842F00802DA61FB68EE
:10206C001B68DA69FB681B6822F00402DA61FB6802
:10207C001B68D969BB681A69FB681B680A43DA617B
:10208C0023E0FB681B68B968184600F0A5FAFB68EA
:10209C001B68DA69FB681B6842F40062DA61FB6852
:1020AC001B68DA69FB681B6822F48062DA61FB68E2
:1020BC001B68D969BB681B691A02FB681B680A4359
:1020CC00DA6102E00123FB7500BFFB68002283F894
:1020DC003C20FB7D18461837BD4680BD80B584B0CA
:1020EC0000AF786039600023FB737B6893F83C3059
:1020FC00012B01D10223B4E07B68012283F83C2040
:10210C007B68022283F83D207B681B689B68BB6060
:10211C00BB6823F07703BB60BB6823F47F43BB60D1
:10212C007B681B68BA689A603B681B68B3F5005FF4
:10213C003ED0B3F5005F00F28780B3F5805F00F00E
:10214C008680B3F5805F7FD8702B1AD0702B7BD82C
:10215C00602B50D0602B77D8502B3CD0502B73D8A1
:10216C00402B58D0402B6FD8302B64D0302B6BD8F1
:10217C00202B60D0202B67D8002B5CD0102B5AD092
:10218C0062E07B6818683B6899683B685A683B68F2
:10219C00DB6800F0E6FA7B681B689B68BB60BB6879
:1021AC0043F07703BB607B681B68BA689A604FE0AA
:1021BC007B6818683B6899683B685A683B68DB68C1
:1021CC0000F0CFFA7B681B689A687B681B6842F446
:1021DC0080429A603CE07B6818683B6859683B68B1
:1021EC00DB681A4600F046FA7B681B6850211846DB
:1021FC0000F09DFA2CE07B6818683B6859683B68D6
:10220C00DB681A4600F064FA7B681B68602118468C
:10221C0000F08DFA1CE07B6818683B6859683B68D5
:10222C00DB681A4600F026FA7B681B6840211846CA
:10223C0000F07DFA0CE07B681A683B681B68194655
:10224C00104600F074FA03E00123FB7300E000BFBA
:10225C007B68012283F83D207B68002283F83C20B8
:10226C00FB7B18461037BD4680BD80B483B000AFF1
:10227C00786000BF0C37BD4680BC704780B483B01B
:10228C0000AF786000BF0C37BD4680BC704780B48F
:10229C0083B000AF786000BF0C37BD4680BC704780
:1022AC0080B485B000AF786039607B681B68FB60D8
:1022BC007B68294A93420BD07B68B3F1804F07D0DF
:1022CC007B68264A934203D07B68254A934208D107
:1022DC00FB6823F07003FB603B685B68FA68134390
:1022EC00FB607B681C4A93420BD07B68B3F1804F38
:1022FC0007D07B68194A934203D07B68184A9342F3
:10230C0008D1FB6823F44073FB603B68DB68FA6818
:10231C001343FB60FB6823F080023B685B6913434B
:10232C00FB607B68FA681A603B689A687B68DA62C3
:10233C003B681A687B689A627B68074A934203D1B0
:10234C003B681A697B681A637B6801225A6100BF7B
:10235C001437BD4680BC7047002C0140000400407F
:10236C000008004080B487B000AF786039607B68AB
:10237C001B6A7B617B681B6A23F001027B681A6213
:10238C007B685B683B617B689B69FB60FB6823F047
:10239C007003FB60FB6823F00303FB603B681B6866
:1023AC00FA681343FB607B6923F002037B613B6893
:1023BC009B687A6913437B617B681C4A93420CD1FE
:1023CC007B6923F008037B613B68DB687A69134304
:1023DC007B617B6923F004037B617B68134A934226
:1023EC0011D13B6923F480733B613B6923F4007387
:1023FC003B613B685B693A6913433B613B689B6992
:10240C003A6913433B617B683A695A607B68FA68A6
:10241C009A613B685A687B685A637B687A691A626E
:10242C0000BF1C37BD4680BC704700BF002C01406C
:10243C0080B487B000AF786039607B681B6A7B61C1
:10244C007B681B6A23F010027B681A627B685B68EE
:10245C003B617B689B69FB60FB6823F4E043FB609A
:10246C00FB6823F44073FB603B681B681B02FA6833
:10247C001343FB607B6923F020037B613B689B6803
:10248C001B017A6913437B617B681D4A93420DD112
:10249C007B6923F080037B613B68DB681B017A69F5
:1024AC0013437B617B6923F040037B617B68144A97
:1024BC00934213D13B6923F480633B613B6923F462
:1024CC0000633B613B685B699B003A6913433B616A
:1024DC003B689B699B003A6913433B617B683A6993
:1024EC005A607B68FA689A613B685A687B689A63A1
:1024FC007B687A691A6200BF1C37BD4680BC704786
:10250C00002C014080B487B000AF786039607B68E4
:10251C001B6A7B617B681B6A23F480727B681A627E
:10252C007B685B683B617B68DB69FB60FB6823F065
:10253C007003FB60FB6823F00303FB603B681B68C4
:10254C00FA681343FB607B6923F400737B613B687F
:10255C009B681B027A6913437B617B681D4A93421B
:10256C000DD17B6923F400637B613B68DB681B0244
:10257C007A6913437B617B6923F480637B617B689D
:10258C00144A934213D13B6923F480533B613B695A
:10259C0023F400533B613B685B691B013A691343AD
:1025AC003B613B689B691B013A6913433B617B6848
:1025BC003A695A607B68FA68DA613B685A687B68EA
:1025CC00DA637B687A691A6200BF1C37BD4680BC2F
:1025DC00704700BF002C014080B487B000AF78601A
:1025EC0039607B681B6A3B617B681B6A23F48052F1
:1025FC007B681A627B685B687B617B68DB69FB606C
:10260C00FB6823F4E043FB60FB6823F44073FB603E
:10261C003B681B681B02FA681343FB603B6923F49D
:10262C0000533B613B689B681B033A6913433B6156
:10263C007B680F4A934209D17B6923F480437B6109
:10264C003B685B699B017A6913437B617B687A69A0
:10265C005A607B68FA68DA613B685A687B681A646E
:10266C007B683A691A6200BF1C37BD4680BC704754
:10267C00002C014080B487B000AFF860B9607A607C
:10268C00FB681B6A7B61FB681B6A23F00102FB6819
:10269C001A62FB689B693B613B6923F0F0033B6169
:1026AC007B681B013A6913433B617B6923F00A0386
:1026BC007B617A69BB6813437B61FB683A699A61F9
:1026CC00FB687A691A6200BF1C37BD4680BC704734
:1026DC0080B487B000AFF860B9607A60FB681B6AA1
:1026EC007B61FB681B6A23F01002FB681A62FB68B3
:1026FC009B693B613B6923F470433B617B681B0323
:10270C003A6913433B617B6923F0A0037B61BB688F
:10271C001B017A6913437B61FB683A699A61FB6818
:10272C007A691A6200BF1C37BD4680BC704780B402
:10273C0085B000AF786039607B689B68FB60FB6894
:10274C0023F07003FB603A68FB68134343F0070304
:10275C00FB607B68FA689A6000BF1437BD4680BC8A
:10276C00704780B487B000AFF860B9607A603B60A6
:10277C00FB689B687B617B6923F47F437B613B68CF
:10278C001A027B681A43BB6813437A6913437B6153
:10279C00FB687A699A6000BF1C37BD4680BC7047E5
:1027AC0080B487B000AFF860B9607A60BB6803F0A2
:1027BC001F03012202FA03F37B61FB681A6A7B692F
:1027CC00DB431A40FB681A62FB681A6ABB6803F0A9
:1027DC001F03796801FA03F31A43FB681A6200BFFE
:1027EC001C37BD4680BC704780B485B000AF7860A4
:1027FC0039607B6893F83C30012B01D1022346E011
:10280C007B68012283F83C207B68022283F83D2000
:10281C007B681B685B68FB607B681B689B68BB60A4
:10282C00FB6823F07003FB603B681B68FA6813437A
:10283C00FB607B681B68FA685A607B681B68164AE9
:10284C0093420ED07B681B68B3F1804F09D07B6834
:10285C001B68124A934204D07B681B68104A93424F
:10286C000CD1BB6823F08003BB603B685B68BA6823
:10287C001343BB607B681B68BA689A607B68012253
:10288C0083F83D207B68002283F83C200023184607
:10289C001437BD4680BC7047002C0140000400403A
:1028AC000008004080B485B000AF78603960002328
:1028BC00FB607B6893F83C30012B01D102233DE097
:1028CC007B68012283F83C20FB6823F0FF023B6805
:1028DC00DB681343FB60FB6823F440723B689B6826
:1028EC001343FB60FB6823F480623B685B68134313
:1028FC00FB60FB6823F400623B681B681343FB60BE
:10290C00FB6823F480523B681B691343FB60FB6834
:10291C0023F400523B685B691343FB60FB6823F4B0
:10292C0080423B68DB691343FB607B681B68FA6879
:10293C005A647B68002283F83C2000231846143725
:10294C00BD4680BC704780B483B000AF786000BFD8
:10295C000C37BD4680BC704780B483B000AF786044
:10296C0000BF0C37BD4680BC7047034602449342FF
:10297C0000D1704703F8011BF9E7000070B5002681
:10298C000C4D0D4C641BA410A64209D100F01AF892
:10299C0000260A4D0A4C641BA410A64205D170BD3A
:1029AC0055F8043B98470136EEE755F8043B984739
:1029BC000136F2E7EC4C0008EC4C0008EC4C00083B
:1029CC00F04C0008F8B500BFF8BC08BC9E46704738
:0C29DC00F8B500BFF8BC08BC9E46704770
:1029E80052494646D622000057415645666D742026
:1029F8001000000001000100401F0000401F0000FF
:102A0800010008004C4953548A000000494E464FC3
:102A1800494152540B000000536F756E6420436C9B
:102A280069700000494352440500000032303230DA
:102A38000000494E414D45000000D09BD0B5D0B2B2
:102A4800D0B8D182D0B0D0BD3A20D093D0BED0B2C9
:102A5800D0BED180D0B8D18220D0B820D0BFD0BECF
:102A6800D0BAD0B0D0B7D18BD0B2D0B0D0B5D18297
:102A780020D09CD0BED181D0BAD0B2D0B020000036
:102A8800495346540D0000004C61766636322E30AC
:102A98002E313030000064617461202200007F7F95
:102AA8007F7F7F7F7F7F7F7F7F7F7F7F7F7F7F7F2E
:102AB8007F7F7F8080808080808080808080808011
:102AC80080808080808080807F8080807F80807F01
:102AD8008080807F807F80808080808080808080F0
:102AE80080808080808080808080808080808080DE
:102AF8008080808080808080808080808080807FCF
:102B0800807F7F7F7F7F7F7F7F7F7F7F7F7F7F7FCC
:102B18007F7F7F7F7F7F7F7F7F7F7F7F7F7F7F7FBD
:102B28007F7F7F7F7F7F7F7F7F7F7F7F7F7F7F7FAD
:102B38007F7F7F7F7F7F7F7F7F7F7F7F7F7F7F7F9D
:102B48007F7F7F7F7F7F7F7F7F7F7F7F7F807F7F8C
:102B58007F7F7F8080808080808080808080808070
:102B6800808080808080807F807F807F807F808061
:102B7800808080808080808080808080808080804D
:102B8800808080808080808080808080808080803D
:102B980080808080808080808080808080807F802E
:102BA8007F7F7F7F7F7F7F7F7F7F7F7F7F7F7F7F2D
:102BB8007F7F7F7F7F7F7F7F7F7F7F7F7F7F7F7F1D
:102BC8007F7F7F7F7F7F7F7F7F7F7F7F7F7F7F7F0D
:102BD8007F7F7F7F7F7F7F7F7F7F7F7F7F7F7F7FFD
:102BE8007F7F7F7F7F7F7F7F7F7F7F7F7F7F807FEC
:102BF800807F7F7F808080808080808080808080D0
:102C080080808080807F80807F807F8080808080BF
:102C180080808080808080808080808080808080AC
:102C2800808080808080808080808080808080809C
:102C380080808080808080808080808080807F808D
:102C4800807F807F7F7F7F7F7F7F7F7F7F7F7F7F8A
:102C58007F7F7F7F7F80807F7F7F80807F7F7F8077
:102C680080807F7F8080807F7F7F80807F7F808162
:102C7800807F7F7E7F808080807F7F7F7F7F7F8057
:102C880080807F7F80807F7F7E7F8081807E7E8046
:102C980080807F7E7F8081807F7E808181807F7F32
:102CA8007F80807F7F7F8081807F7E7F81807E7D27
:102CB8007E8082807F808080807F7F80818080800E
:102CC8008081807D7C7E8082817D7C8082807F7E09
:102CD8007E81827E7C7D7F8182807D7E8181817FF5
:102CE8007C7E8282807E7D7F82817D7C7E818381E5
:102CF8007C7C808182817C7C8283817E7D7E8283D4
:102D0800817F7E8083817C7B7E8284827E7C7D80C5
:102D1800817F7D7E8082817E7E7F8283807D7D7FB4
:102D28007F7E7D7E808080807F80807E7C7C7E83AD
:102D3800837F7D7E8385817C7B7E8384807B7A8094
:102D480085827C7A7F8486827C7C8183827C787988
:102D5800808786837E7E8383817A75798088868062
:102D68007D7D8081827E7A7B7F8081837F7C80806D
:102D78007E7F7C797C807E7E7F7E818585817E7C5E
:102D88007D83857E7B7C7D7F817F7E81818180794B
:102D98007A81837F7E7F7E83847D77787D848B852F
:102DA8007C7C8385868177788386817F7A777F8725
:102DB800847E7D7A7B817F7B7C7E7D8185817F801F
:102DC8007E7D7F818081817C7C7E808283807D8105
:102DD8008382807D7B7C858880777278828C877AF5
:102DE80073737C8489857B7B8185858178777C7FFB
:102DF800858A8A7F797E84848279616391B0B5A45B
:102E08007F5C536B7B7E755E505F80969F9B88824C
:102E18008F9FA5A5977C6F71787D7C6F5D5C6B7BC0
:102E2800888A7E6E6D79838C84756C6D7C89908EB2
:102E3800868489949893887A757A828787827E7B3C
:102E48007A7E84837B787C848D8D81787572797E97
:102E58007E7773727085828283798587857C787A9C
:102E68007577454591B8D3CAA7603E555C74816CA7
:102E7800493F62799FC5C0AFA5A9A0ADC2A9866A1E
:102E88005947425450545D5E5E6E929FACB9A99406
:102E98008584797A8777665E5A5B6C84848FA1A66D
:102EA800ACB0AA91807162667078797B7B737F8EF3
:102EB800979F9F94847E7775756F685D5C5F616D81
:102EC80078797B817A767B79817670808077797959
:102ED8007893A898879A946B719C977A737E8A9E48
:102EE800A28C715576A0C8D5AD804E35283C607946
:102EF8008578717283A4B5C0BDB3A18D8B87847C9E
:102F08007265564E40445665727277767A88929CFE
:102F18009A978A807F7C8487878073727A828A8F67
:102F28008D827E787780878783827C777A7F848B8F
:102F3800928C8B8F83888B8B7D6C757869637075A9
:102F48006E68746E737669727C787C7E818B80770C
:102F58008AA48F86847D85929994867272748C9CDB
:102F68008973535D82A8D1D2B1764F4140566D7DA9
:102F78007D76665A6F8CA7B8BAB3A2978D898F945D
:102F88008A756351474D5C6A737976737A7E838755
:102F98008D8D88867F7F797C80868E8688857E80E9
:102FA800888F88857C777A787A777E7D787A7C8432
:102FB8008A9092898C8C8174717C8375697164752F
:102FC8007D757A86867673798275687D9D84717140
:102FD8007D9490909592878685828C784E6884A59A
:102FE800C5C7AB7A6248455365737175645C79955A
:102FF800AEB9BDB1A29A8F8C8B8C78665C4C4F5C55
:10300800686D6F736B737E868E918F807B78757F0A
:1030180082847E807F7C828C96959489848683893D
:103028008880797679797A716E7983888A9797908A
:10303800867B7A79787479736E6F70818480777300
:103048007976727C89807567697B87898A8A7B80B3
:10305800878C9099684C8CACC1CEBE7C4B43425255
:10306800646D71736D6485ADB6B5ABA7A0A3A1A05F
:103078009C846A4D52605F6C655D5C6B808599933A
:10308800867C7B81818D7C6F6D6B747D8D8C8A8A4B
:1030980086908E9093887F797D7D84806F6C6B702D
:1030A8007A8687828585898B867F787E7B7B7C7F05
:1030B8008382827A7776757574736E72797B828172
:1030C8007F7C7C80817A868A5374B1CBD4AC895159
:1030D8005263595E6064557392868D8C96B0BFBBFF
:1030E800A69D8C8689897657564D556C6E655F7698
:1030F8008497AA988375808186897164646F7585C1
:10310800887C818A959B9A8F889E9F98896C5F633B
:1031180076756964667E979F958B8C89928F786F98
:1031280073757B806F67737D7B7B766B718B8D7519
:103138006F6D75857E8771368DE6CB98727D778148
:103148007459535A787375644D8DC6AD93A0B0AB5E
:10315800B3A27872898B6054544E6B7A6753719B13
:10316800908C938C92A799716B807D66666B6E7E4E
:103178007664809C9487919895A39B82868C786AC4
:10318800706F6C70716F7E877F7B8B978F827F8566
:103198008887797374736D6D7A756E7B79707683B1
:1031A800917946A0F2724A92C691595F5A626D654A
:1031B800579E905362ACB98AAABDABAF9E798798E7
:1031C800834855826450646C62697D747D9D8776FE
:1031D8009EAB867C98987371786E818059659987C3
:1031E8005B80A289818E8F909A887899946875936C
:1031F800775E7D8D7873797D83847B7E8F817685FC
:1032080083726F7170767676785D5BC8AF4182CED7
:103218009B4A6CA67F515D728B785676AA955D8421
:10322800BA987696B099888D88867F6B6C82765A24
:10323800657B6D5F6B736C6D78777B8388858D9507
:103248008A8D978A8491897F80817A7B827F7F812A
:103258007D7C878B807D8C8C858D8B89827D7E792A
:1032680076717679777571777F8076747F827974D5
:10327800797B76777C81817C7C8085908476808957
:10328800908B827C7E7A6D82907C6F75797B8B8A3D
:103298007C7D8386909B918688888789897D7572D5
:1032A8006D717476726D73767A7B7674777D8084AF
:1032B800857E7C8387888C8E8B89868B9191908F75
:1032C80089888D8B86837D72767C746C6C71706E48
:1032D8006B6E7472737A80817F7D79819387838E18
:1032E800867F858C84807A6C7179746E7678758621
:1032F8008D85899592919B9791979488888E8479EA
:1033080078716C6D6E6D6D6E6E6D70736F6E7476B8
:103318007A7D8185868A8E8F918D8890918A87891A
:1033280088837F8182828284827D82838182827D7A
:103338007B78717278736D71767571727270798637
:1033480082848D8C8B92978D87807271726D6C716F
:103358006F70808A888C9495979C999A958C8584AF
:1033680083797774706D6D696F74706E7275727829
:103378007972767A777B8382838C8C89898D8C901D
:10338800948E8C8D8B888B8E8B868887847E7D7CB3
:103398007472777574797C787877727668697A7AD6
:1033A80077868778858C818384726B786F6A777566
:1033B80072899284969B8E94A49B8C8F837F85843C
:1033C80080878371787C757174716C6C696B6B6ABA
:1033D8006D71737781868A8A8B8C8C8C8C8B8987AC
:1033E800888C8D8E9192908B8C8C878681797A7659
:1033F8006B70737273777276686BA16B75A97A7547
:1034080090977A82726967546573685A8182849743
:103418009C9B92959EA791919682798B887A7975D3
:10342800767472727261626C6669706F6C777C8593
:103438008C8F909291939791959085828A8B8886AC
:103448008284827E7F837E797E76767D777A837AA0
:103458007D6776C25A75C961689A9E6C786C605EA1
:103468003A6D77625B9786709D9B9E8E98ABA68A15
:103478008EA578678E876A6F7B70676B75775F70CC
:103488007967627F82647B8B84869D978D949396FF
:10349800898A9080778A8878827E7980817D7B7C12
:1034A8007D7F7B7E7F737C7E7E6F60C28148D68BFA
:1034B8005E8E9D766173536B47638969528DA862EE
:1034C8009CB89E8B96AD938A93A27D63939367670E
:1034D800876F5677816B5E6772645A7F836A7D8EC9
:1034E80084849691869198908A8B88827E85847B45
:1034F80080827E81847E7A7E8383847C7A867986C4
:103508006966D4674BDE7E5C81A85E4E925564582E
:10351800807373567BBB5380BEA25FA1C5747C9D2C
:10352800A86C6AA1916A659282506E8B684877810F
:10353800626D7B8E747398977E86A4887A92967D46
:103548007D91817880817773787E757585857B8F8D
:103558009070858B79808D6A55CD972DC6A851635B
:10356800A1863788845B479A7E677A5BA98B6A88CD
:10357800C48A4EB5BD5B6DC98F4692B16E517F87C7
:1035880058647C7D64587C8470739D946D8EA28889
:103598007B95987C7B9287737686876F778C866C11
:1035A8007B947D6E818F69778A8B7A7D834DB6BFD8
:1035B8003E8DCA7A356CB64F4E98A04548B4736FA5
:1035C8006D81ADA56970D49E3D8FE0733391C05372
:1035D80042A59151639683666774846D5A7AA07F79
:1035E8005E89A577689B9E7984938F8C877479917F
:1035F8007B7084927B6B868C82837C7A90817976CF
:10360800895858DE894B7FB2A83B717E71734F850C
:1036180074887543A3B7696BA7B28180A26E95AF12
:103628007C6778A86F5D937163787E69527F7B5F52
:10363800707B877F7E7E7A958B879587858B938530
:103648007E9480767B717C7F877D7D887B7A858080
:103658007A878D7F79644CA0BA9B88677F73838E45
:103668005F6859526F9490586B978991B0A58A7783
:103678009192889D897C6E75886E798272736B725F
:1036880073736E6971717375797878858D8D949877
:1036980090858F94848280787A7D817F7F7E7C80FC
:1036A800838784868B827F7E858483736B9C866800
:1036B8008995776E9E88757965656D7B615D707992
:1036C80075869F938A809A938B9A8B84858B798150
:1036D8008C7B798486737779666A7971636F6E5F9C
:1036E80072817C78858A7689989192929382858B6B
:1036F800878980808486817D7F797D84847C7780BA
:10370800646DA68A778990737EA47F7C73656279DD
:103718007D5F6F757566859384898A937D91917FA6
:1037280081868F81948A7881858782867B6B727087
:10373800626C6D656777776C80817A89938B8A96DE
:103748008E879392848889827E878C8185827B7F0D
:103758007D757B8D6A549B9361899C6B70A47F7384
:103768008072627885606F716F719098849C938E77
:1037780084988B74858682778B7B6C7E7C77808639
:10378800736C75706A716C696E7C7E7B8B83808BC1
:10379800908B8F978A868E8C81888B848382828097
:1037A80089858587837E7D7B8070508E9D6D7C8F1B
:1037B8006F629B8A7585725F718D67677868657EB1
:1037C80098828E928E8D9897828B89877F9488694C
:1037D80072767B7581796D6E6E7575746A747471A5
:1037E8007C817E7B85888C9895899295879099882D
:1037F8007D8D8478888A847C82827A7F757E6F4DFD
:103808008C9F727E987864968472857668768867CD
:10381800657463678A968096977A7E988F81989167
:10382800888289796979777F81877C6A69697880F4
:1038380076696A6D6B72837F7B83808C958D908EA1
:1038480097989CA79487767583787879757A7C8021
:1038580073505AA2C5B29B84502F556084A17660DC
:10386800657786A4CEA57978565F8BAFA7838865E0
:103878005C8F9E937C6A4B3A67838C9A82686D89C9
:10388800978E8A6C4B597599B0A28B72757D92AFE1
:1038980094776B6D8994987D58607394A0938E8209
:1038A8007B7A66579FC6AE9A7D4D205D7C6F896591
:1038B8003D6EB4C4B8B0792A5D968BA58E5C689EBF
:1038C800B09F9C7540486675858D6A5B869696990B
:1038D800784D516D848D89756D8E9EAA9D74606337
:1038E8008BA2A6906863758A9D94766E738890857E
:1038F800846B518FC3B9B2955019578B7B7A664741
:1039080074BEC8B881542B5AAF8A877E809BB3BBDC
:1039180085684E3C577A7B706E7DA1B0A77E55486E
:103928005B878D867A798D98A28C73676A82949763
:103938008B7E818186867D7F7975777D7A7E8F6F94
:1039480069B7BDB1AB6E1F3083766E725E79C0C247
:10395800AB784E395BB582769BA4B3B3A25E434E77
:103968004F6B807C819DAE9B8B6F454563757C82D8
:10397800909193917D71708B91837D767F93968AD8
:103988007D7979787B72717D797593945F93C5AAF7
:10399800B98E48155993778177789DC4A8764340A6
:1039A8004992AE7DA0A5AFAF9A6633435167868C26
:1039B80096A5A39B7158535479818681829B9088E0
:1039C80067596F89A18C78727293A897847E8178E1
:1039D800727C7571778C956666AFABB7B569192E31
:1039E80095907B757F8FB0B6804834507FB08782C2
:1039F800A9B4B7A370343E6C74787B89ABB2977165
:103A08004D465D808D7A7A80989F8F76647288970C
:103A18008C75636E87999A897B7D7D746972747BD6
:103A280094845988B8A9C097470B64A97F7072908D
:103A3800A2C9A45F32446FA1A36C87AEC0B68E4FF3
:103A4800335B827E6C6F8AACB891583B5776868D13
:103A58007F74779790786F6D7F95967F71727A8A69
:103A68009D9B8A85797370717677838A5C6EB0A91D
:103A7800BEA85C0F52B28464698CA2D0AD60394490
:103A8800799DA06E82ACBEAF813D2F789A82646624
:103A980086B3B184544C79938F7771838B876B5B32
:103AA8006B89998E7A6D6C76858C9696978D735EF8
:103AB8006274828585616DAFAEC2A356165AB58011
:103AC800576798A6CBA548385B8C96836989BED280
:103AD800AE6A374890A37858669CC1A15D344E8E73
:103AE800AA8A686577968D5D4C75A2A9956F5B6FFC
:103AF8008783778497A0937F726F6F7F87885E64D0
:103B0800AAB3C6A34F1063AE6957789DA6C99F3F55
:103B18004C6F827F696B99CCD29F5F44568D9365B9
:103B28005F83AFB78C523F5F8E97797387918774A5
:103B38005A5F8FA08A7B7F848378707281958D808D
:103B48007976727A7F82685796B8C9B56A1A41B091
:103B580082476699ABC7BB474689886D57678FCB45
:103B6800D195656476786E4A5791C2BD8A64596F5B
:103B7800786F5F739A938173667283817E8A928F5E
:103B8800827A7C8B8A7E818D9483746B6D81785662
:103B980083B9C5B17B3B329A802F5595B6B7B55BD3
:103BA8005596815B466C93C2C98D748C966E433C66
:103BB8006C929F9C8192A1866462696A847E6C7E05
:103BC8009289747078817F7A7F89868785858F94BA
:103BD8008D7B6E707982806264A8D0AD75666E80C8
:103BE800762D3A90B4A7977B709F8A4A386B99953F
:103BF80098929BB3AD764D5F6A665A719DABA37E72
:103C080074888C6C57696F81877D899B8E737378F4
:103C1800837F6A728E937E7F868C97846A668080A3
:103C28006067B6D38D6A7B8281611E5CAE98788AA4
:103C38009895AF78325E9F815F85A1B5BA866C850D
:103C4800885844668286777488A8976C63767B6206
:103C5800577597947F7E8B968E777387908C7D812E
:103C6800888D827E82716C74837E5A5EDAC2687235
:103C7800989B7B472095AA57569CB0958C6A7A9555
:103C880065427ABFA88A858CAF8F5A56686C605790
:103C980069928E7E8D958876706F818368758B8822
:103CA8007B8394928E777F8E8074808A83767587E3
:103CB80090777486825955E5B14B6CA1A57553363A
:103CC80098862F5BBCAD687A9CA68F575CADAA69B5
:103CD8005597BB9877769991675C676B7066638731
:103CE800927F748385716B65737971839FA0928BC2
:103CF80091877771879275758E978A848581767C8E
:103D08007D85477BE77A5290AE805D5A7B9A4B2F30
:103D180096AD5B659EAF836B708FA7776D9FB893E9
:103D28007B8A93875C5C887A4C537F9382626F8D21
:103D380076576282897B7E949E85828D817C7B7793
:103D48007C8B8D8DA29B808284796D6F6E75849A31
:103D58006C67C89E656F91806C7B76958F75607B6C
:103D6800816C706D676B877F88A3A485859C92831F
:103D780078737A8F807D918573756D6877756263C6
:103D880077797A838783756972888875809DA19B06
:103D9800958D847E7D797B8A88838C8F8677807DDC
:103DA8007470656B86927E7F8A7F81938A7B767733
:103DB8007A7D776A766C708681777A85848D8F862E
:103DC8008B978E838579858C7B7379877F7F7A6AD9
:103DD8006A706D676E7B837E80817A78818A7F8046
:103DE8008F91898A9691837F7C7F8C887C8A96893B
:103DF8007E7C76747D6E647E877C898E747D9689E0
:103E08007F79636A81776B756F6B7F857C84898026
:103E1800899084919D88828A7D73827E727E878450
:103E28008A8D796E6F6D6D6F6B6A70777B86867D14
:103E38007D818B8C86868C908C89878D938D8A8CDE
:103E480083808480797B838177737072877F6E7DAE
:103E5800847984928583857570746C6C78727184AA
:103E6800867A838378818F92938F83868478797B0F
:103E7800777F8781807F736F7B766A7375737E80A7
:103E88007A7A78757B847F81969F96908E878A8FC1
:103E98008582848A8981808183847D72757A7D8117
:103EA8007C71696E7C7F81877D808D877E82796D4C
:103EB8007B837A7773697481726E7F838A9892851F
:103EC8008F95877E7B838B8C8882807E817D7369CA
:103ED8006973787774726F717877777F8A8F8E8C31
:103EE8008C938E7E7F898F8B888986848082848359
:103EF800817C7C7D7B716E777D7F8185827B6C7D0B
:103F08008D7E717F8B828C8A7C7B7D706C706C6CF3
:103F180078726D7E887D788589888E9792959A913A
:103F28008E8C7F777F7F717A86766F7A7062707AEF
:103F38006F707773737B82818B90898D9289838C64
:103F480090848C938B8D9188786F75777173798352
:103F580082817E828279797A7579838479856F6C9A
:103F68008F867C7C7F7686898D83757A84715D6F78
:103F78006F6C737C82837C92A49A8FA2A28D8486B4
:103F880092857F8680736A6F717074716C717376B5
:103F98007C71667580797781868A9B9C93909694CC
:103FA8008E8D7F7681897D716E747B8479747B8038
:103FB8007A7B7D808486868281818578837A7B7707
:103FC8007E7D9E5167B5546F9F905F958093895011
:103FD8007784615D916975868F978D689AA56B86E0
:103FE800AC9081958884726F918C637283716676C8
:103FF800746B647183786C7F806C77898D888F8E01
:10400800959B93928F837B86827986897974767A59
:10401800786E727B8288968780888D847C7E878A7A
:104028007878837769766C716E797E7A6A97447B43
:10403800D7398EBF7E5CA0948A8B5597813E7EB21D
:104048005971957F857C84AD8062B0A6637E9D732F
:104058006F76838B5C689C78577A82686B797F72FD
:10406800668F996962929377859999879FB2856CD3
:10407800929571798D866F728A7F69737E6D6C7E79
:104088008A7E77889084798181797E8A7572828A1E
:10409800806F6A89776C777E7A7B877F7637E49F33
:1040A80034CFA2566AB68372656DA35244B4823384
:1040B8008EA7757F95A9AB6D91D07A56AE9C546A40
:1040C80086816C6B7F7C4C5A9F744C77947064909B
:1040D800927074908A797F9F947D95A5836B8C9F4D
:1040E80082678091746C9084617894866A70858305
:1040F800758A977670948472787F777786807F71D7
:10410800668388717381717982808E887130D8B4A2
:1041180023C3B1656CAC8C5E72709C5E30AFA841F5
:104128006AB48A6197B59D6C7CBB98517FAD6C472A
:104138007E9567587C8A69597F8F5E5791956C7315
:1041480096977078A99E707FA4926C7EA5896787E0
:1041580097807C8C956F5F7A837366818E76739473
:10416800836677847972819083707F9082717D8273
:1041780075747B8283867C837A6884897A70938A53
:10418800834786FA4463DA863D74C265537381991E
:10419800365CD286327BD37A4AA5C78860A4C679B2
:1041A8004D89A5584096AB55559F944E508E8250D8
:1041B8005BA1A56E7BAC936987A47961939E867B8E
:1041C80086A1896A829561549C8E5D76907F6B7C0E
:1041D8008A806D768A7F727F96856E828B7A7A87DF
:1041E8008975668190837679877769798176658024
:1041F80091837F87847D85878229ACF42B70DF9635
:10420800326EC865496591AC3751D1B13C5EE493D3
:104218003D97D38E4A86C28D4D6CAA7A2D6AAC76AC
:104228004675A0755077967B506AA287658BB58BCB
:1042380076A79881767C9B876E7F9C80648E8F673B
:104248005D7795746C7F8B807392897273858C7897
:10425800717D7F7B7F847F7A847F7B7E797E878474
:104268007B7C7F7678817C7C6D6D918783847F777A
:104278008C8B89574EFA942CB4C86B33A7A745503A
:104288005DB6881A7CD99D3185E17C4B99CF8B43EB
:1042980076B19A4D51AD9D465CAB943E519C935D71
:1042A8005A8F936A6794A37E749DA3857687987FB7
:1042B8007B76878B7C867E84726D796D746C779142
:1042C80088828286887C7C82877B7B8A877A787CD6
:1042D80070748076758A85727E88726D76809A8809
:1042E8006E8B8D6477938E7A6E8B846F96958749E3
:1042F8004CFAA232A5C97D2D8FA653463BA6A531FF
:104308005DC9C3485FD1A85F75B6AF6A59819A790C
:104318004C70A781516D9A7F515E85916C618BA21B
:10432800947A819C866A77998E687C9D8B6C7B8F4A
:10433800827978838E786B7C8271758F86818D8B7C
:104348008684847A85887980807B81796C77898274
:10435800707E847B7B75787D7F7370827E7C888796
:10436800847176807A80837E858488928A586DE10C
:10437800864AA4B67A487E89715D428CAA5B5DA99B
:10438800C5776CA9A2816B779197645D9EA6635BE4
:1043980087967855678677576D999473758F988146
:1043A8007185917F697D988E777A8C907C798A7FE8
:1043B8007B74737B7D736D7A7F878E868E948880FD
:1043C8007E797F81767477737C8C897D7D857E7D0F
:1043D8007B757C777683827F838B878383727586F0
:1043E8007B6E858D807F7E8087857D4E6FEC9049C2
:1043F8009EB989456A7E7B6D3271C7855D8FC09095
:10440800578A94927D5968A8A25761A7A06A5F6AE3
:10441800877E61558094626B9BA1837384949474A6
:104428005E80907F758B9D8B7C8B98968568848940
:104438006C676A7A7E736B849F8E7C8C937A6472C5
:104448008184706B94937A74827F78786E77857D97
:10445800747689896F6F87987A798F8E846C7A8958
:1044680086836D7A967D759793583EE2CA2F8CAAFB
:104478009B4E4B736B8F3747CEAF627FC3BE708A3C
:104488007B82AF6A4B7EAF7852879A796F5F76915D
:104498006C4E659182727D91968577809A89627457
:1044A800938A786984978D7D7290937F6F758086E3
:1044B8008469728D75859F7F878C7976847B707807
:1044C8007783867C8391876E7997816B6B6F797020
:1044D8007C80848B878D85838071728375687D96D7
:1044E800856278908A83876A42C6E34A72B19C687B
:1044F800536B7496592FA2BB7571A0B187817679D9
:10450800A5834E7DB78F657A94827B6955777F5EE8
:10451800568497786C7E918D7D7785957F67899D88
:10452800857584887E918D7E85917C6C777D766C8F
:1045380068739B977A7686A88E5C7B947A62658787
:104548008E7968809E8766748B8476747B808A7780
:104558007290947D6B7D8A7C767780887275998756
:104568006B86867C8E7A7490A15030E2D34174AF0A
:1045780097766455789C5431A0B4707799A5A09A21
:104588006963AE9B41589A9780777B8C946A52797D
:104598008E6453718086776D81978E70849F8F7734
:1045A80072868C857A718F9D8276888C806B627812
:1045B8007F7B6E838A94998792947E6891A06B58CA
:1045C800727172716C7E938A718992746776747550
:1045D800898B8191A08F7F7D7F76787C78847A6EB5
:1045E80094956465878F7A727E84887F7D82867EC3
:1045F80086854A99F0785298A3744A58647F7C3B20
:1046080059B3A97C8B9F98A19B6873A78350779D0A
:104618008F808485857E6258747D575A7C8B948BF5
:1046280073739291736C7887857C818E949085885A
:10463800958F7B79857D6F5F63808573777F93A086
:104648008687916E6897986C698A7F768378758873
:10465800836F7D857E7E8072627C8F8883827F8077
:104668008C82767F7C7B82807F777C918A7B7B853E
:1046780089837A797F7F74788C857D9B893D78E3FF
:10468800A65B7499906F4C4B8A924B4B96AE8A8579
:104698008A879E96616195956D70898F9085727BEA
:1046A80089755F6E7E757278768790776D84908451
:1046B800736C7E877E7D83889099968E8D878273B2
:1046C8006B7F856D788A769699637B96766C737125
:1046D80084A7814F87A16D61757980887B728A87ED
:1046E800737E8277808E8A828A91827776838878B1
:1046F800757D8682797D8582777F8A7E85876F75CD
:104708008E8A78767E817F8C7B707F7A807B74AC92
:10471800C28871898E775C536A796A617B949687BF
:10472800777B868D8B7A7A888A89898E908E80703D
:1047380077816A586872777C747081867C777A8210
:104748008D88797B868D8B80779BAB7B74959586DE
:10475800756B7B8B7B6A798B7A79A18F687E8A7976
:104768007C86777B837A7F837D7D807C777C81766E
:10477800747E7F817B7A837E74747F7C7277858276
:104788008286838A8F796E8B917D70778E8F7A7708
:104798007D86787F9983757F8F8F7D6E85B4A270B3
:1047A800717A70706557688B8A797F8F8A77737A88
:1047B8007D87857D909F927E7E8482847962728BCC
:1047C8008776747D7370747D847C7B8376728A8C23
:1047D8007C7B7B808E86808D877C808187867478C1
:1047E800867D79848A837E8B8E80837F7476807DB4
:1047F80071868B7D7D7B7781847C797E7F7C7E7BD7
:10480800787B827C768183747C8D867779868380B9
:1048180088897672818484857977857F8091856D92
:104828008397887880867992A07E7682797A7E6B63
:104838006A818375727A77778A876D798C828589A0
:104848007F87908F8C8378727D83746F807E757B71
:104858007E7F73767D778388767F91807C817A7D71
:104868008C8D83818A84788487717A8C857D7D7A22
:104878007B8681737D827881837D758495816D784F
:104888008C8886878981736D78827875767C808339
:10489800827477828886837E7C87867B7B8083820E
:1048A8007E868C8D7D7C7F8277778D908B7B777BE6
:1048B80082797E7C74717D77597AAF9E717B8A8309
:1048C800807E6F718C9173697B898C806F6C818F0E
:1048D8007C7C8C918D89848992886E6F7D7A7A74BC
:1048E8007171797F7D7268778B86767D86888781FE
:1048F80081877F808C908A828B91817882867C7177
:104908006F7B857E7A7E736E7D807F7E7D818588D4
:104918008C847D8286887F79787F7D727D827B809A
:104928007D7B7C737B857D797987909089797D8281
:10493800857D7D858385837D7879777C818C896F7A
:104948007187938D8076808D816E747B7B868E7F58
:1049580072829483706D7886827065819798918150
:104968006A768D7E646B828C897D747483877369A3
:104978007B8893918782879195866C698699826AEC
:10498800747D757D7F737279818876687B8A857D71
:10499800828F8F8B8681767B8E8E87847E84887BC0
:1049A800767773717C7B717E8F87848682857F7F23
:1049B8008B82737B8A806E717B80787F8A76738422
:1049C8008B817E80828A88827F787C8C8C827573CA
:1049D8007A848A8076787D83847571788585787401
:1049E800737A7E7D7E7A808F95928A86838583749A
:1049F8007A7D7A87887B727F89786B777D7A787AF7
:104A08007A78767A8A8578808D918B82828B888570
:104A1800857F7A737F8B8177747E817D8284817CA8
:104A28007B817D7E807F7974818382837E7E818293
:104A38007D7E8480828C8E8175777A767B827C7C81
:104A48007E7F827F777C877D7C7D78838A8B837C61
:104A58007E8084817C848C897F7C817E797C807651
:104A6800747F857E788084858A86807B7A7978844D
:104A780081797B868A7B7D7C79807B79797D7F8053
:104A880089837C807B7F817D7E808B8E82797A7C16
:104A98007473787F7F7F7D7E837C808A847C80822C
:104AA8007F7D8A918682828181847D76767D7B7303
:104AB8007C8A837A8084828179758387857F7E82E8
:104AC8008888767378858A84807B7D8283827B76EA
:104AD8007D85867C7F837C7A7E8378707B887E71F7
:104AE8007B8385847A818A86818990796E7A8280AF
:104AF800767C88867F757579838679828C8C7975C2
:104B0800817270647EA1797B9A7F74868185847FA7
:104B180083888A80808477737B7F80817E80888485
:104B28007B7D857B79827A80817279827E7B8180A8
:104B38007A8885737683857D868F85787685837672
:104B4800768188807E858C87807E7B6B6F85877E6B
:104B58007A8A938079827D7B787C857D71778E8651
:104B68007A838B8C807D7C7979787B81807E797F54
:104B7800867B6F728489868B84888F847F796E7830
:104B88008A8676798D816C767C7A766F7D88898E37
:104B980090857C7D7E7E7E82848380777E8B847CFC
:104BA8007B7F7E7E7D7A85807B8183807E86897F00
:104BB800727879758589777E8D85777775727F802C
:104BC800848782858E86767581837A7F8C908276BB
:104BD800838E7D6B707E817A7B848A80757B7D7401
:104BE800727B7F7E7E868D897F7E8A897D848583A0
:104BF800807D807F83847B76797C7F8079727E8DCF
:104C08008176807F797F847E7E898A878480828985
:104C18007E77837E6F79878373758D8C76738486B0
:104C280077778387817E858C7C6F79817F81857E8C
:104C380078888C7D73737C7B7B827F7E83858F886D
:104C48007A83928D737682797E877E6F707E847B7D
:104C5800727E878183837F7C8186807976838D7F4E
:104C68007F887E77828C80767B807D78818476874A
:104C78008F79707D857F7C7C7D787C8B927767824D
:104C880096816E81918373878E7772828F80747A12
:104C980083877A79827F7B8488787C8980777D8511
:104CA800807C7D75777C7C807E7F8381797D8D8A11
:104CB8007F8084807D85867F808B887D7C840000D2
:104CC80000000000000000000102030406070809B4
:104CD80002030405060708090A0B0C0D0E0F101035
:044CE80001020000C5
:044CEC00310100088A
:044CF0000D010008AA
:0C4CF4000024F40010000000010000008B
:04000005080007D90F
:00000001FF
